{
  "contractName": "ZombieFeeding",
  "abi": [
    {
      "anonymous": false,
      "inputs": [
        {
          "indexed": false,
          "internalType": "uint256",
          "name": "zombieId",
          "type": "uint256"
        },
        {
          "indexed": false,
          "internalType": "string",
          "name": "name",
          "type": "string"
        },
        {
          "indexed": false,
          "internalType": "uint256",
          "name": "dna",
          "type": "uint256"
        }
      ],
      "name": "NewZombie",
      "type": "event"
    },
    {
      "anonymous": false,
      "inputs": [
        {
          "indexed": true,
          "internalType": "address",
          "name": "previousOwner",
          "type": "address"
        },
        {
          "indexed": true,
          "internalType": "address",
          "name": "newOwner",
          "type": "address"
        }
      ],
      "name": "OwnershipTransferred",
      "type": "event"
    },
    {
      "constant": false,
      "inputs": [
        {
          "internalType": "string",
          "name": "_name",
          "type": "string"
        }
      ],
      "name": "createRandomZombie",
      "outputs": [],
      "payable": false,
      "stateMutability": "nonpayable",
      "type": "function"
    },
    {
      "constant": true,
      "inputs": [],
      "name": "owner",
      "outputs": [
        {
          "internalType": "address",
          "name": "",
          "type": "address"
        }
      ],
      "payable": false,
      "stateMutability": "view",
      "type": "function"
    },
    {
      "constant": false,
      "inputs": [
        {
          "internalType": "address",
          "name": "newOwner",
          "type": "address"
        }
      ],
      "name": "transferOwnership",
      "outputs": [],
      "payable": false,
      "stateMutability": "nonpayable",
      "type": "function"
    },
    {
      "constant": true,
      "inputs": [
        {
          "internalType": "uint256",
          "name": "",
          "type": "uint256"
        }
      ],
      "name": "zombieToOwner",
      "outputs": [
        {
          "internalType": "address",
          "name": "",
          "type": "address"
        }
      ],
      "payable": false,
      "stateMutability": "view",
      "type": "function"
    },
    {
      "constant": true,
      "inputs": [
        {
          "internalType": "uint256",
          "name": "",
          "type": "uint256"
        }
      ],
      "name": "zombies",
      "outputs": [
        {
          "internalType": "string",
          "name": "name",
          "type": "string"
        },
        {
          "internalType": "uint256",
          "name": "dna",
          "type": "uint256"
        },
        {
          "internalType": "uint32",
          "name": "level",
          "type": "uint32"
        },
        {
          "internalType": "uint32",
          "name": "readyTime",
          "type": "uint32"
        }
      ],
      "payable": false,
      "stateMutability": "view",
      "type": "function"
    },
    {
      "constant": false,
      "inputs": [
        {
          "internalType": "address",
          "name": "_address",
          "type": "address"
        }
      ],
      "name": "setKittyContractAddress",
      "outputs": [],
      "payable": false,
      "stateMutability": "nonpayable",
      "type": "function"
    },
    {
      "constant": false,
      "inputs": [
        {
          "internalType": "uint256",
          "name": "_zombieId",
          "type": "uint256"
        },
        {
          "internalType": "uint256",
          "name": "_kittyId",
          "type": "uint256"
        }
      ],
      "name": "feedOnKitty",
      "outputs": [],
      "payable": false,
      "stateMutability": "nonpayable",
      "type": "function"
    }
  ],
  "bytecode": "0x60806040526010600155600154600a0a60025562015180600355336000806101000a81548173ffffffffffffffffffffffffffffffffffffffff021916908373ffffffffffffffffffffffffffffffffffffffff160217905550610e6d806100686000396000f3fe608060405234801561001057600080fd5b506004361061007d5760003560e01c80635f4623f11161005b5780635f4623f1146101fc5780637bff0a01146102405780638da5cb5b146102fb578063f2fde38b146103455761007d565b806317a7f4cc146100825780632052465e146100ba578063528b7b8f1461018e575b600080fd5b6100b86004803603604081101561009857600080fd5b810190808035906020019092919080359060200190929190505050610389565b005b6100e6600480360360208110156100d057600080fd5b8101908080359060200190929190505050610514565b60405180806020018581526020018463ffffffff1663ffffffff1681526020018363ffffffff1663ffffffff168152602001828103825286818151815260200191508051906020019080838360005b83811015610150578082015181840152602081019050610135565b50505050905090810190601f16801561017d5780820380516001836020036101000a031916815260200191505b509550505050505060405180910390f35b6101ba600480360360208110156101a457600080fd5b8101908080359060200190929190505050610609565b604051808273ffffffffffffffffffffffffffffffffffffffff1673ffffffffffffffffffffffffffffffffffffffff16815260200191505060405180910390f35b61023e6004803603602081101561021257600080fd5b81019080803573ffffffffffffffffffffffffffffffffffffffff16906020019092919050505061063c565b005b6102f96004803603602081101561025657600080fd5b810190808035906020019064010000000081111561027357600080fd5b82018360208201111561028557600080fd5b803590602001918460018302840111640100000000831117156102a757600080fd5b91908080601f016020809104026020016040519081016040528093929190818152602001838380828437600081840152601f19601f8201169050808301925050505050505091929192905050506106d9565b005b610303610740565b604051808273ffffffffffffffffffffffffffffffffffffffff1673ffffffffffffffffffffffffffffffffffffffff16815260200191505060405180910390f35b6103876004803603602081101561035b57600080fd5b81019080803573ffffffffffffffffffffffffffffffffffffffff169060200190929190505050610765565b005b6000600760009054906101000a900473ffffffffffffffffffffffffffffffffffffffff1673ffffffffffffffffffffffffffffffffffffffff1663e98b7f4d836040518263ffffffff1660e01b8152600401808281526020019150506101406040518083038186803b1580156103ff57600080fd5b505afa158015610413573d6000803e3d6000fd5b505050506040513d61014081101561042a57600080fd5b81019080805190602001909291908051906020019092919080519060200190929190805190602001909291908051906020019092919080519060200190929190805190602001909291908051906020019092919080519060200190929190805190602001909291905050509091929394959697985090919293949596975090919293949596509091929394955090919293945090919293509091925090915090508091505061050f83826040518060400160405280600581526020017f6b697474790000000000000000000000000000000000000000000000000000008152506108b6565b505050565b6004818154811061052157fe5b9060005260206000209060030201600091509050806000018054600181600116156101000203166002900480601f0160208091040260200160405190810160405280929190818152602001828054600181600116156101000203166002900480156105cd5780601f106105a2576101008083540402835291602001916105cd565b820191906000526020600020905b8154815290600101906020018083116105b057829003601f168201915b5050505050908060010154908060020160009054906101000a900463ffffffff16908060020160049054906101000a900463ffffffff16905084565b60056020528060005260406000206000915054906101000a900473ffffffffffffffffffffffffffffffffffffffff1681565b6000809054906101000a900473ffffffffffffffffffffffffffffffffffffffff1673ffffffffffffffffffffffffffffffffffffffff163373ffffffffffffffffffffffffffffffffffffffff161461069557600080fd5b80600760006101000a81548173ffffffffffffffffffffffffffffffffffffffff021916908373ffffffffffffffffffffffffffffffffffffffff16021790555050565b6000600660003373ffffffffffffffffffffffffffffffffffffffff1673ffffffffffffffffffffffffffffffffffffffff168152602001908152602001600020541461072557600080fd5b600061073082610a85565b905061073c8282610b13565b5050565b6000809054906101000a900473ffffffffffffffffffffffffffffffffffffffff1681565b6000809054906101000a900473ffffffffffffffffffffffffffffffffffffffff1673ffffffffffffffffffffffffffffffffffffffff163373ffffffffffffffffffffffffffffffffffffffff16146107be57600080fd5b600073ffffffffffffffffffffffffffffffffffffffff168173ffffffffffffffffffffffffffffffffffffffff1614156107f857600080fd5b8073ffffffffffffffffffffffffffffffffffffffff166000809054906101000a900473ffffffffffffffffffffffffffffffffffffffff1673ffffffffffffffffffffffffffffffffffffffff167f8be0079c531659141344cd1fd0a4f28419497f9722a3daafe3b4186f6b6457e060405160405180910390a3806000806101000a81548173ffffffffffffffffffffffffffffffffffffffff021916908373ffffffffffffffffffffffffffffffffffffffff16021790555050565b6005600084815260200190815260200160002060009054906101000a900473ffffffffffffffffffffffffffffffffffffffff1673ffffffffffffffffffffffffffffffffffffffff163373ffffffffffffffffffffffffffffffffffffffff161461092157600080fd5b60006004848154811061093057fe5b9060005260206000209060030201905061094981610d42565b61095257600080fd5b600254838161095d57fe5b06925060006002848360010154018161097257fe5b04905060405180807f6b6974747900000000000000000000000000000000000000000000000000000081525060050190506040518091039020836040516020018082805190602001908083835b602083106109e257805182526020820191506020810190506020830392506109bf565b6001836020036101000a038019825116818451168082178552505050505050905001915050604051602081830303815290604052805190602001201415610a3657606360648281610a2f57fe5b0682030190505b610a756040518060400160405280600681526020017f4e6f4e616d65000000000000000000000000000000000000000000000000000081525082610b13565b610a7e82610d69565b5050505050565b600080826040516020018082805190602001908083835b60208310610abf5780518252602082019150602081019050602083039250610a9c565b6001836020036101000a0380198251168184511680821785525050505050509050019150506040516020818303038152906040528051906020012060001c90506002548181610b0a57fe5b06915050919050565b6000600160046040518060800160405280868152602001858152602001600163ffffffff168152602001600354420163ffffffff16815250908060018154018082558091505090600182039060005260206000209060030201600090919290919091506000820151816000019080519060200190610b92929190610d93565b506020820151816001015560408201518160020160006101000a81548163ffffffff021916908363ffffffff16021790555060608201518160020160046101000a81548163ffffffff021916908363ffffffff1602179055505050039050336005600083815260200190815260200160002060006101000a81548173ffffffffffffffffffffffffffffffffffffffff021916908373ffffffffffffffffffffffffffffffffffffffff160217905550600660003373ffffffffffffffffffffffffffffffffffffffff1673ffffffffffffffffffffffffffffffffffffffff168152602001908152602001600020600081548092919060010191905055507f88f026aacbbecc90c18411df4b1185fd8d9be2470f1962f192bf84a27d0704b78184846040518084815260200180602001838152602001828103825284818151815260200191508051906020019080838360005b83811015610d01578082015181840152602081019050610ce6565b50505050905090810190601f168015610d2e5780820380516001836020036101000a031916815260200191505b5094505050505060405180910390a1505050565b6000428260020160049054906101000a900463ffffffff1663ffffffff1611159050919050565b60035442018160020160046101000a81548163ffffffff021916908363ffffffff16021790555050565b828054600181600116156101000203166002900490600052602060002090601f016020900481019282601f10610dd457805160ff1916838001178555610e02565b82800160010185558215610e02579182015b82811115610e01578251825591602001919060010190610de6565b5b509050610e0f9190610e13565b5090565b610e3591905b80821115610e31576000816000905550600101610e19565b5090565b9056fea265627a7a72315820391372d31f839140a63fe0981e5ecc0b4ed974c5cf995032230f58ba1930ab9a64736f6c63430005100032",
  "source": "pragma solidity ^0.5.16;\n\nimport \"./zombiefactory.sol\";\n\ncontract KittyInterface {\n    function getKitty(uint256 _id)\n        external\n        view\n        returns (\n            bool isGestating,\n            bool isReady,\n            uint256 cooldownIndex,\n            uint256 nextActionAt,\n            uint256 siringWithId,\n            uint256 birthTime,\n            uint256 matronId,\n            uint256 sireId,\n            uint256 generation,\n            uint256 genes\n        );\n}\n\n// クリプトキティーズのgetKitty()関数（コントラクト）のインターフェースを用意\n// function getKitty(uint256 _id) external view returns (\n//     bool isGestating,\n//     bool isReady,\n//     uint256 cooldownIndex,\n//     uint256 nextActionAt,\n//     uint256 siringWithId,\n//     uint256 birthTime,\n//     uint256 matronId,\n//     uint256 sireId,\n//     uint256 generation,\n//     uint256 genes\n// ) {\n//     Kitty storage kit = kitties[_id];\n\n//     // if this variable is 0 then it's not gestating\n//     isGestating = (kit.siringWithId != 0);\n//     isReady = (kit.cooldownEndBlock <= block.number);\n//     cooldownIndex = uint256(kit.cooldownIndex);\n//     nextActionAt = uint256(kit.cooldownEndBlock);\n//     siringWithId = uint256(kit.siringWithId);\n//     birthTime = uint256(kit.birthTime);\n//     matronId = uint256(kit.matronId);\n//     sireId = uint256(kit.sireId);\n//     generation = uint256(kit.generation);\n//     genes = kit.genes;\n// }\n\ncontract ZombieFeeding is ZombieFactory {\n    KittyInterface kittyContract;\n\n    function setKittyContractAddress(address _address) external onlyOwner {\n        kittyContract = KittyInterface(_address);\n    }\n\n    function _triggerCooldown(Zombie storage _zombie) internal {\n        _zombie.readyTime = uint32(now + cooldownTime);\n    }\n\n    function _isReady(Zombie storage _zombie) internal view returns (bool) {\n        return (_zombie.readyTime <= now);\n    }\n\n    function feedAndMultiply(\n        uint256 _zombieId,\n        uint256 _targetDna,\n        string memory _species\n    ) internal {\n        require(msg.sender == zombieToOwner[_zombieId]);\n        Zombie storage myZombie = zombies[_zombieId];\n        require(_isReady(myZombie));\n\n        _targetDna = _targetDna % dnaModulus;\n        uint256 newDna = (myZombie.dna + _targetDna) / 2;\n        if (keccak256(abi.encodePacked(_species)) == keccak256(\"kitty\")) {\n            newDna = newDna - (newDna % 100) + 99;\n        }\n        _createZombie(\"NoName\", newDna);\n\n        _triggerCooldown(myZombie);\n    }\n\n    function feedOnKitty(uint256 _zombieId, uint256 _kittyId) public {\n        uint256 kittyDna;\n        (, , , , , , , , , kittyDna) = kittyContract.getKitty(_kittyId);\n        feedAndMultiply(_zombieId, kittyDna, \"kitty\");\n    }\n}\n",
  "sourcePath": "/home/cryptozombie/myCryptoZombie/contracts/zombiefeeding.sol",
  "compiler": {
    "name": "solc",
    "version": "0.5.16+commit.9c3226ce.Emscripten.clang"
  },
  "schemaVersion": "3.4.2",
  "updatedAt": "2021-08-13T01:07:09.416Z",
  "devdoc": {
    "methods": {
      "transferOwnership(address)": {
        "details": "Allows the current owner to transfer control of the contract to a newOwner.",
        "params": {
          "newOwner": "The address to transfer ownership to."
        }
      }
    }
  },
  "userdoc": {
    "methods": {}
  }
}