{
  "contractName": "ZombieFeeding",
  "abi": [
    {
      "anonymous": false,
      "inputs": [
        {
          "indexed": false,
          "internalType": "uint256",
          "name": "zombieId",
          "type": "uint256"
        },
        {
          "indexed": false,
          "internalType": "string",
          "name": "name",
          "type": "string"
        },
        {
          "indexed": false,
          "internalType": "uint256",
          "name": "dna",
          "type": "uint256"
        }
      ],
      "name": "NewZombie",
      "type": "event"
    },
    {
      "constant": false,
      "inputs": [
        {
          "internalType": "string",
          "name": "_name",
          "type": "string"
        }
      ],
      "name": "createRandomZombie",
      "outputs": [],
      "payable": false,
      "stateMutability": "nonpayable",
      "type": "function"
    },
    {
      "constant": true,
      "inputs": [
        {
          "internalType": "uint256",
          "name": "",
          "type": "uint256"
        }
      ],
      "name": "zombieToOwner",
      "outputs": [
        {
          "internalType": "address",
          "name": "",
          "type": "address"
        }
      ],
      "payable": false,
      "stateMutability": "view",
      "type": "function"
    },
    {
      "constant": true,
      "inputs": [
        {
          "internalType": "uint256",
          "name": "",
          "type": "uint256"
        }
      ],
      "name": "zombies",
      "outputs": [
        {
          "internalType": "string",
          "name": "name",
          "type": "string"
        },
        {
          "internalType": "uint256",
          "name": "dna",
          "type": "uint256"
        }
      ],
      "payable": false,
      "stateMutability": "view",
      "type": "function"
    },
    {
      "constant": false,
      "inputs": [
        {
          "internalType": "address",
          "name": "_address",
          "type": "address"
        }
      ],
      "name": "setKittyContractAddress",
      "outputs": [],
      "payable": false,
      "stateMutability": "nonpayable",
      "type": "function"
    },
    {
      "constant": false,
      "inputs": [
        {
          "internalType": "uint256",
          "name": "_zombieId",
          "type": "uint256"
        },
        {
          "internalType": "uint256",
          "name": "_targetDna",
          "type": "uint256"
        },
        {
          "internalType": "string",
          "name": "_species",
          "type": "string"
        }
      ],
      "name": "feedAndMultiply",
      "outputs": [],
      "payable": false,
      "stateMutability": "nonpayable",
      "type": "function"
    },
    {
      "constant": false,
      "inputs": [
        {
          "internalType": "uint256",
          "name": "_zombieId",
          "type": "uint256"
        },
        {
          "internalType": "uint256",
          "name": "_kittyId",
          "type": "uint256"
        }
      ],
      "name": "feedOnKitty",
      "outputs": [],
      "payable": false,
      "stateMutability": "nonpayable",
      "type": "function"
    }
  ],
  "bytecode": "0x60806040526010600055600054600a0a60015534801561001e57600080fd5b50610bac8061002e6000396000f3fe608060405234801561001057600080fd5b50600436106100625760003560e01c806317a7f4cc146100675780632052465e1461009f578063528b7b8f1461014d5780635f4623f1146101bb5780636b0bfc80146101ff5780637bff0a01146102ce575b600080fd5b61009d6004803603604081101561007d57600080fd5b810190808035906020019092919080359060200190929190505050610389565b005b6100cb600480360360208110156100b557600080fd5b8101908080359060200190929190505050610514565b6040518080602001838152602001828103825284818151815260200191508051906020019080838360005b838110156101115780820151818401526020810190506100f6565b50505050905090810190601f16801561013e5780820380516001836020036101000a031916815260200191505b50935050505060405180910390f35b6101796004803603602081101561016357600080fd5b81019080803590602001909291905050506105dd565b604051808273ffffffffffffffffffffffffffffffffffffffff1673ffffffffffffffffffffffffffffffffffffffff16815260200191505060405180910390f35b6101fd600480360360208110156101d157600080fd5b81019080803573ffffffffffffffffffffffffffffffffffffffff169060200190929190505050610610565b005b6102cc6004803603606081101561021557600080fd5b8101908080359060200190929190803590602001909291908035906020019064010000000081111561024657600080fd5b82018360208201111561025857600080fd5b8035906020019184600183028401116401000000008311171561027a57600080fd5b91908080601f016020809104026020016040519081016040528093929190818152602001838380828437600081840152601f19601f820116905080830192505050505050509192919290505050610654565b005b610387600480360360208110156102e457600080fd5b810190808035906020019064010000000081111561030157600080fd5b82018360208201111561031357600080fd5b8035906020019184600183028401116401000000008311171561033557600080fd5b91908080601f016020809104026020016040519081016040528093929190818152602001838380828437600081840152601f19601f820116905080830192505050505050509192919290505050610819565b005b6000600560009054906101000a900473ffffffffffffffffffffffffffffffffffffffff1673ffffffffffffffffffffffffffffffffffffffff1663e98b7f4d836040518263ffffffff1660e01b8152600401808281526020019150506101406040518083038186803b1580156103ff57600080fd5b505afa158015610413573d6000803e3d6000fd5b505050506040513d61014081101561042a57600080fd5b81019080805190602001909291908051906020019092919080519060200190929190805190602001909291908051906020019092919080519060200190929190805190602001909291908051906020019092919080519060200190929190805190602001909291905050509091929394959697985090919293949596975090919293949596509091929394955090919293945090919293509091925090915090508091505061050f83826040518060400160405280600581526020017f6b69747479000000000000000000000000000000000000000000000000000000815250610654565b505050565b6002818154811061052157fe5b9060005260206000209060020201600091509050806000018054600181600116156101000203166002900480601f0160208091040260200160405190810160405280929190818152602001828054600181600116156101000203166002900480156105cd5780601f106105a2576101008083540402835291602001916105cd565b820191906000526020600020905b8154815290600101906020018083116105b057829003601f168201915b5050505050908060010154905082565b60036020528060005260406000206000915054906101000a900473ffffffffffffffffffffffffffffffffffffffff1681565b80600560006101000a81548173ffffffffffffffffffffffffffffffffffffffff021916908373ffffffffffffffffffffffffffffffffffffffff16021790555050565b6003600084815260200190815260200160002060009054906101000a900473ffffffffffffffffffffffffffffffffffffffff1673ffffffffffffffffffffffffffffffffffffffff163373ffffffffffffffffffffffffffffffffffffffff16146106bf57600080fd5b6000600284815481106106ce57fe5b9060005260206000209060020201905060015483816106e957fe5b0692506000600284836001015401816106fe57fe5b04905060405160200180807f6b69747479000000000000000000000000000000000000000000000000000000815250600501905060405160208183030381529060405280519060200120836040516020018082805190602001908083835b6020831061077f578051825260208201915060208101905060208303925061075c565b6001836020036101000a0380198251168184511680821785525050505050509050019150506040516020818303038152906040528051906020012014156107d3576063606482816107cc57fe5b0682030190505b6108126040518060400160405280600681526020017f4e6f4e616d65000000000000000000000000000000000000000000000000000081525082610880565b5050505050565b6000600460003373ffffffffffffffffffffffffffffffffffffffff1673ffffffffffffffffffffffffffffffffffffffff168152602001908152602001600020541461086557600080fd5b600061087082610a44565b905061087c8282610880565b5050565b6000600160026040518060400160405280868152602001858152509080600181540180825580915050906001820390600052602060002090600202016000909192909190915060008201518160000190805190602001906108e2929190610ad2565b50602082015181600101555050039050336003600083815260200190815260200160002060006101000a81548173ffffffffffffffffffffffffffffffffffffffff021916908373ffffffffffffffffffffffffffffffffffffffff160217905550600460003373ffffffffffffffffffffffffffffffffffffffff1673ffffffffffffffffffffffffffffffffffffffff168152602001908152602001600020600081548092919060010191905055507f88f026aacbbecc90c18411df4b1185fd8d9be2470f1962f192bf84a27d0704b78184846040518084815260200180602001838152602001828103825284818151815260200191508051906020019080838360005b83811015610a035780820151818401526020810190506109e8565b50505050905090810190601f168015610a305780820380516001836020036101000a031916815260200191505b5094505050505060405180910390a1505050565b600080826040516020018082805190602001908083835b60208310610a7e5780518252602082019150602081019050602083039250610a5b565b6001836020036101000a0380198251168184511680821785525050505050509050019150506040516020818303038152906040528051906020012060001c90506001548181610ac957fe5b06915050919050565b828054600181600116156101000203166002900490600052602060002090601f016020900481019282601f10610b1357805160ff1916838001178555610b41565b82800160010185558215610b41579182015b82811115610b40578251825591602001919060010190610b25565b5b509050610b4e9190610b52565b5090565b610b7491905b80821115610b70576000816000905550600101610b58565b5090565b9056fea265627a7a72315820703b7d0eef25467a7c329529e2e7c79dc5f52192865236acf2988a52532673ba64736f6c63430005100032",
  "source": "pragma solidity ^0.5.16;\n\nimport \"./zombiefactory.sol\";\n\ncontract KittyInterface {\n    function getKitty(uint256 _id)\n        external\n        view\n        returns (\n            bool isGestating,\n            bool isReady,\n            uint256 cooldownIndex,\n            uint256 nextActionAt,\n            uint256 siringWithId,\n            uint256 birthTime,\n            uint256 matronId,\n            uint256 sireId,\n            uint256 generation,\n            uint256 genes\n        );\n}\n\n// クリプトキティーズのgetKitty()関数（コントラクト）のインターフェースを用意\n// function getKitty(uint256 _id) external view returns (\n//     bool isGestating,\n//     bool isReady,\n//     uint256 cooldownIndex,\n//     uint256 nextActionAt,\n//     uint256 siringWithId,\n//     uint256 birthTime,\n//     uint256 matronId,\n//     uint256 sireId,\n//     uint256 generation,\n//     uint256 genes\n// ) {\n//     Kitty storage kit = kitties[_id];\n\n//     // if this variable is 0 then it's not gestating\n//     isGestating = (kit.siringWithId != 0);\n//     isReady = (kit.cooldownEndBlock <= block.number);\n//     cooldownIndex = uint256(kit.cooldownIndex);\n//     nextActionAt = uint256(kit.cooldownEndBlock);\n//     siringWithId = uint256(kit.siringWithId);\n//     birthTime = uint256(kit.birthTime);\n//     matronId = uint256(kit.matronId);\n//     sireId = uint256(kit.sireId);\n//     generation = uint256(kit.generation);\n//     genes = kit.genes;\n// }\n\ncontract ZombieFeeding is ZombieFactory {\n    KittyInterface kittyContract;\n\n    function setKittyContractAddress(address _address) external {\n        kittyContract = KittyInterface(_address);\n    }\n\n    function feedAndMultiply(\n        uint256 _zombieId,\n        uint256 _targetDna,\n        string memory _species\n    ) public {\n        require(msg.sender == zombieToOwner[_zombieId]);\n        Zombie storage myZombie = zombies[_zombieId];\n        _targetDna = _targetDna % dnaModulus;\n        uint256 newDna = (myZombie.dna + _targetDna) / 2;\n\n        if (\n            keccak256(abi.encodePacked(_species)) ==\n            keccak256(abi.encodePacked(\"kitty\"))\n        ) {\n            newDna = newDna - (newDna % 100) + 99;\n        }\n        _createZombie(\"NoName\", newDna);\n    }\n\n    function feedOnKitty(uint256 _zombieId, uint256 _kittyId) public {\n        uint256 kittyDna;\n        (, , , , , , , , , kittyDna) = kittyContract.getKitty(_kittyId);\n        feedAndMultiply(_zombieId, kittyDna, \"kitty\");\n    }\n}\n",
  "sourcePath": "/home/cryptozombie/myCryptoZombie/contracts/zombiefeeding.sol",
  "compiler": {
    "name": "solc",
    "version": "0.5.16+commit.9c3226ce.Emscripten.clang"
  },
  "schemaVersion": "3.4.2",
  "updatedAt": "2021-08-12T23:42:30.475Z",
  "devdoc": {
    "methods": {}
  },
  "userdoc": {
    "methods": {}
  }
}