{
  "contractName": "ZombieHelper",
  "abi": [
    {
      "anonymous": false,
      "inputs": [
        {
          "indexed": false,
          "internalType": "uint256",
          "name": "zombieId",
          "type": "uint256"
        },
        {
          "indexed": false,
          "internalType": "string",
          "name": "name",
          "type": "string"
        },
        {
          "indexed": false,
          "internalType": "uint256",
          "name": "dna",
          "type": "uint256"
        }
      ],
      "name": "NewZombie",
      "type": "event"
    },
    {
      "anonymous": false,
      "inputs": [
        {
          "indexed": true,
          "internalType": "address payable",
          "name": "previousOwner",
          "type": "address"
        },
        {
          "indexed": true,
          "internalType": "address payable",
          "name": "newOwner",
          "type": "address"
        }
      ],
      "name": "OwnershipTransferred",
      "type": "event"
    },
    {
      "constant": false,
      "inputs": [
        {
          "internalType": "string",
          "name": "_name",
          "type": "string"
        }
      ],
      "name": "createRandomZombie",
      "outputs": [],
      "payable": false,
      "stateMutability": "nonpayable",
      "type": "function"
    },
    {
      "constant": false,
      "inputs": [
        {
          "internalType": "uint256",
          "name": "_zombieId",
          "type": "uint256"
        },
        {
          "internalType": "uint256",
          "name": "_kittyId",
          "type": "uint256"
        }
      ],
      "name": "feedOnKitty",
      "outputs": [],
      "payable": false,
      "stateMutability": "nonpayable",
      "type": "function"
    },
    {
      "constant": true,
      "inputs": [],
      "name": "owner",
      "outputs": [
        {
          "internalType": "address payable",
          "name": "",
          "type": "address"
        }
      ],
      "payable": false,
      "stateMutability": "view",
      "type": "function"
    },
    {
      "constant": false,
      "inputs": [
        {
          "internalType": "address",
          "name": "_address",
          "type": "address"
        }
      ],
      "name": "setKittyContractAddress",
      "outputs": [],
      "payable": false,
      "stateMutability": "nonpayable",
      "type": "function"
    },
    {
      "constant": false,
      "inputs": [
        {
          "internalType": "address payable",
          "name": "newOwner",
          "type": "address"
        }
      ],
      "name": "transferOwnership",
      "outputs": [],
      "payable": false,
      "stateMutability": "nonpayable",
      "type": "function"
    },
    {
      "constant": true,
      "inputs": [
        {
          "internalType": "uint256",
          "name": "",
          "type": "uint256"
        }
      ],
      "name": "zombieToOwner",
      "outputs": [
        {
          "internalType": "address",
          "name": "",
          "type": "address"
        }
      ],
      "payable": false,
      "stateMutability": "view",
      "type": "function"
    },
    {
      "constant": true,
      "inputs": [
        {
          "internalType": "uint256",
          "name": "",
          "type": "uint256"
        }
      ],
      "name": "zombies",
      "outputs": [
        {
          "internalType": "string",
          "name": "name",
          "type": "string"
        },
        {
          "internalType": "uint256",
          "name": "dna",
          "type": "uint256"
        },
        {
          "internalType": "uint32",
          "name": "level",
          "type": "uint32"
        },
        {
          "internalType": "uint32",
          "name": "readyTime",
          "type": "uint32"
        }
      ],
      "payable": false,
      "stateMutability": "view",
      "type": "function"
    },
    {
      "constant": false,
      "inputs": [],
      "name": "withdraw",
      "outputs": [],
      "payable": false,
      "stateMutability": "nonpayable",
      "type": "function"
    },
    {
      "constant": false,
      "inputs": [
        {
          "internalType": "uint256",
          "name": "_fee",
          "type": "uint256"
        }
      ],
      "name": "setLevelUpFee",
      "outputs": [],
      "payable": false,
      "stateMutability": "nonpayable",
      "type": "function"
    },
    {
      "constant": false,
      "inputs": [
        {
          "internalType": "uint256",
          "name": "_zombieId",
          "type": "uint256"
        }
      ],
      "name": "levelUp",
      "outputs": [],
      "payable": true,
      "stateMutability": "payable",
      "type": "function"
    },
    {
      "constant": false,
      "inputs": [
        {
          "internalType": "uint256",
          "name": "_zombieId",
          "type": "uint256"
        },
        {
          "internalType": "string",
          "name": "_newName",
          "type": "string"
        }
      ],
      "name": "changeName",
      "outputs": [],
      "payable": false,
      "stateMutability": "nonpayable",
      "type": "function"
    },
    {
      "constant": false,
      "inputs": [
        {
          "internalType": "uint256",
          "name": "_zombieId",
          "type": "uint256"
        },
        {
          "internalType": "uint256",
          "name": "_newDna",
          "type": "uint256"
        }
      ],
      "name": "changeDna",
      "outputs": [],
      "payable": false,
      "stateMutability": "nonpayable",
      "type": "function"
    },
    {
      "constant": true,
      "inputs": [
        {
          "internalType": "address",
          "name": "_owner",
          "type": "address"
        }
      ],
      "name": "getZombiesByOwner",
      "outputs": [
        {
          "internalType": "uint256[]",
          "name": "",
          "type": "uint256[]"
        }
      ],
      "payable": false,
      "stateMutability": "view",
      "type": "function"
    }
  ],
  "bytecode": "0x60806040526010600155600154600a0a6002556201518060035566038d7ea4c68000600855336000806101000a81548173ffffffffffffffffffffffffffffffffffffffff021916908373ffffffffffffffffffffffffffffffffffffffff1602179055506115ff806100736000396000f3fe6080604052600436106100c25760003560e01c80635f4623f11161007f5780638da5cb5b116100595780638da5cb5b146104b1578063c39cbef114610508578063ccf670f814610598578063f2fde38b146105d3576100c2565b80635f4623f1146103535780635faf2880146103a45780637bff0a01146103e9576100c2565b80630ce90ec2146100c757806317a7f4cc146100f55780632052465e1461013a5780633ccfd60b1461021b5780634412e10414610232578063528b7b8f146102d8575b600080fd5b6100f3600480360360208110156100dd57600080fd5b8101908080359060200190929190505050610624565b005b34801561010157600080fd5b506101386004803603604081101561011857600080fd5b81019080803590602001909291908035906020019092919050505061068c565b005b34801561014657600080fd5b506101736004803603602081101561015d57600080fd5b8101908080359060200190929190505050610817565b60405180806020018581526020018463ffffffff1663ffffffff1681526020018363ffffffff1663ffffffff168152602001828103825286818151815260200191508051906020019080838360005b838110156101dd5780820151818401526020810190506101c2565b50505050905090810190601f16801561020a5780820380516001836020036101000a031916815260200191505b509550505050505060405180910390f35b34801561022757600080fd5b5061023061090c565b005b34801561023e57600080fd5b506102816004803603602081101561025557600080fd5b81019080803573ffffffffffffffffffffffffffffffffffffffff1690602001909291905050506109cf565b6040518080602001828103825283818151815260200191508051906020019060200280838360005b838110156102c45780820151818401526020810190506102a9565b505050509050019250505060405180910390f35b3480156102e457600080fd5b50610311600480360360208110156102fb57600080fd5b8101908080359060200190929190505050610afc565b604051808273ffffffffffffffffffffffffffffffffffffffff1673ffffffffffffffffffffffffffffffffffffffff16815260200191505060405180910390f35b34801561035f57600080fd5b506103a26004803603602081101561037657600080fd5b81019080803573ffffffffffffffffffffffffffffffffffffffff169060200190929190505050610b2f565b005b3480156103b057600080fd5b506103e7600480360360408110156103c757600080fd5b810190808035906020019092919080359060200190929190505050610bcc565b005b3480156103f557600080fd5b506104af6004803603602081101561040c57600080fd5b810190808035906020019064010000000081111561042957600080fd5b82018360208201111561043b57600080fd5b8035906020019184600183028401116401000000008311171561045d57600080fd5b91908080601f016020809104026020016040519081016040528093929190818152602001838380828437600081840152601f19601f820116905080830192505050505050509192919290505050610ca4565b005b3480156104bd57600080fd5b506104c6610d0b565b604051808273ffffffffffffffffffffffffffffffffffffffff1673ffffffffffffffffffffffffffffffffffffffff16815260200191505060405180910390f35b34801561051457600080fd5b506105966004803603604081101561052b57600080fd5b81019080803590602001909291908035906020019064010000000081111561055257600080fd5b82018360208201111561056457600080fd5b8035906020019184600183028401116401000000008311171561058657600080fd5b9091929391929390505050610d30565b005b3480156105a457600080fd5b506105d1600480360360208110156105bb57600080fd5b8101908080359060200190929190505050610e14565b005b3480156105df57600080fd5b50610622600480360360208110156105f657600080fd5b81019080803573ffffffffffffffffffffffffffffffffffffffff169060200190929190505050610e77565b005b600854341461063257600080fd5b6004818154811061063f57fe5b9060005260206000209060030201600201600081819054906101000a900463ffffffff168092919060010191906101000a81548163ffffffff021916908363ffffffff1602179055505050565b6000600760009054906101000a900473ffffffffffffffffffffffffffffffffffffffff1673ffffffffffffffffffffffffffffffffffffffff1663e98b7f4d836040518263ffffffff1660e01b8152600401808281526020019150506101406040518083038186803b15801561070257600080fd5b505afa158015610716573d6000803e3d6000fd5b505050506040513d61014081101561072d57600080fd5b81019080805190602001909291908051906020019092919080519060200190929190805190602001909291908051906020019092919080519060200190929190805190602001909291908051906020019092919080519060200190929190805190602001909291905050509091929394959697985090919293949596975090919293949596509091929394955090919293945090919293509091925090915090508091505061081283826040518060400160405280600581526020017f6b69747479000000000000000000000000000000000000000000000000000000815250610fc8565b505050565b6004818154811061082457fe5b9060005260206000209060030201600091509050806000018054600181600116156101000203166002900480601f0160208091040260200160405190810160405280929190818152602001828054600181600116156101000203166002900480156108d05780601f106108a5576101008083540402835291602001916108d0565b820191906000526020600020905b8154815290600101906020018083116108b357829003601f168201915b5050505050908060010154908060020160009054906101000a900463ffffffff16908060020160049054906101000a900463ffffffff16905084565b6000809054906101000a900473ffffffffffffffffffffffffffffffffffffffff1673ffffffffffffffffffffffffffffffffffffffff163373ffffffffffffffffffffffffffffffffffffffff161461096557600080fd5b6000809054906101000a900473ffffffffffffffffffffffffffffffffffffffff1673ffffffffffffffffffffffffffffffffffffffff166108fc479081150290604051600060405180830381858888f193505050501580156109cc573d6000803e3d6000fd5b50565b606080600660008473ffffffffffffffffffffffffffffffffffffffff1673ffffffffffffffffffffffffffffffffffffffff16815260200190815260200160002054604051908082528060200260200182016040528015610a405781602001602082028038833980820191505090505b509050600080905060008090505b600480549050811015610af1578473ffffffffffffffffffffffffffffffffffffffff166005600083815260200190815260200160002060009054906101000a900473ffffffffffffffffffffffffffffffffffffffff1673ffffffffffffffffffffffffffffffffffffffff161415610ae45780838381518110610acf57fe5b60200260200101818152505081806001019250505b8080600101915050610a4e565b508192505050919050565b60056020528060005260406000206000915054906101000a900473ffffffffffffffffffffffffffffffffffffffff1681565b6000809054906101000a900473ffffffffffffffffffffffffffffffffffffffff1673ffffffffffffffffffffffffffffffffffffffff163373ffffffffffffffffffffffffffffffffffffffff1614610b8857600080fd5b80600760006101000a81548173ffffffffffffffffffffffffffffffffffffffff021916908373ffffffffffffffffffffffffffffffffffffffff16021790555050565b6014828160048281548110610bdd57fe5b906000526020600020906003020160020160009054906101000a900463ffffffff1663ffffffff161015610c1057600080fd5b6005600085815260200190815260200160002060009054906101000a900473ffffffffffffffffffffffffffffffffffffffff1673ffffffffffffffffffffffffffffffffffffffff163373ffffffffffffffffffffffffffffffffffffffff1614610c7b57600080fd5b8260048581548110610c8957fe5b90600052602060002090600302016001018190555050505050565b6000600660003373ffffffffffffffffffffffffffffffffffffffff1673ffffffffffffffffffffffffffffffffffffffff1681526020019081526020016000205414610cf057600080fd5b6000610cfb82611197565b9050610d078282611225565b5050565b6000809054906101000a900473ffffffffffffffffffffffffffffffffffffffff1681565b6002838160048281548110610d4157fe5b906000526020600020906003020160020160009054906101000a900463ffffffff1663ffffffff161015610d7457600080fd5b6005600086815260200190815260200160002060009054906101000a900473ffffffffffffffffffffffffffffffffffffffff1673ffffffffffffffffffffffffffffffffffffffff163373ffffffffffffffffffffffffffffffffffffffff1614610ddf57600080fd5b838360048781548110610dee57fe5b90600052602060002090600302016000019190610e0c9291906114a5565b505050505050565b6000809054906101000a900473ffffffffffffffffffffffffffffffffffffffff1673ffffffffffffffffffffffffffffffffffffffff163373ffffffffffffffffffffffffffffffffffffffff1614610e6d57600080fd5b8060088190555050565b6000809054906101000a900473ffffffffffffffffffffffffffffffffffffffff1673ffffffffffffffffffffffffffffffffffffffff163373ffffffffffffffffffffffffffffffffffffffff1614610ed057600080fd5b600073ffffffffffffffffffffffffffffffffffffffff168173ffffffffffffffffffffffffffffffffffffffff161415610f0a57600080fd5b8073ffffffffffffffffffffffffffffffffffffffff166000809054906101000a900473ffffffffffffffffffffffffffffffffffffffff1673ffffffffffffffffffffffffffffffffffffffff167f8be0079c531659141344cd1fd0a4f28419497f9722a3daafe3b4186f6b6457e060405160405180910390a3806000806101000a81548173ffffffffffffffffffffffffffffffffffffffff021916908373ffffffffffffffffffffffffffffffffffffffff16021790555050565b6005600084815260200190815260200160002060009054906101000a900473ffffffffffffffffffffffffffffffffffffffff1673ffffffffffffffffffffffffffffffffffffffff163373ffffffffffffffffffffffffffffffffffffffff161461103357600080fd5b60006004848154811061104257fe5b9060005260206000209060030201905061105b81611454565b61106457600080fd5b600254838161106f57fe5b06925060006002848360010154018161108457fe5b04905060405180807f6b6974747900000000000000000000000000000000000000000000000000000081525060050190506040518091039020836040516020018082805190602001908083835b602083106110f457805182526020820191506020810190506020830392506110d1565b6001836020036101000a0380198251168184511680821785525050505050509050019150506040516020818303038152906040528051906020012014156111485760636064828161114157fe5b0682030190505b6111876040518060400160405280600681526020017f4e6f4e616d65000000000000000000000000000000000000000000000000000081525082611225565b6111908261147b565b5050505050565b600080826040516020018082805190602001908083835b602083106111d157805182526020820191506020810190506020830392506111ae565b6001836020036101000a0380198251168184511680821785525050505050509050019150506040516020818303038152906040528051906020012060001c9050600254818161121c57fe5b06915050919050565b6000600160046040518060800160405280868152602001858152602001600163ffffffff168152602001600354420163ffffffff168152509080600181540180825580915050906001820390600052602060002090600302016000909192909190915060008201518160000190805190602001906112a4929190611525565b506020820151816001015560408201518160020160006101000a81548163ffffffff021916908363ffffffff16021790555060608201518160020160046101000a81548163ffffffff021916908363ffffffff1602179055505050039050336005600083815260200190815260200160002060006101000a81548173ffffffffffffffffffffffffffffffffffffffff021916908373ffffffffffffffffffffffffffffffffffffffff160217905550600660003373ffffffffffffffffffffffffffffffffffffffff1673ffffffffffffffffffffffffffffffffffffffff168152602001908152602001600020600081548092919060010191905055507f88f026aacbbecc90c18411df4b1185fd8d9be2470f1962f192bf84a27d0704b78184846040518084815260200180602001838152602001828103825284818151815260200191508051906020019080838360005b838110156114135780820151818401526020810190506113f8565b50505050905090810190601f1680156114405780820380516001836020036101000a031916815260200191505b5094505050505060405180910390a1505050565b6000428260020160049054906101000a900463ffffffff1663ffffffff1611159050919050565b60035442018160020160046101000a81548163ffffffff021916908363ffffffff16021790555050565b828054600181600116156101000203166002900490600052602060002090601f016020900481019282601f106114e657803560ff1916838001178555611514565b82800160010185558215611514579182015b828111156115135782358255916020019190600101906114f8565b5b50905061152191906115a5565b5090565b828054600181600116156101000203166002900490600052602060002090601f016020900481019282601f1061156657805160ff1916838001178555611594565b82800160010185558215611594579182015b82811115611593578251825591602001919060010190611578565b5b5090506115a191906115a5565b5090565b6115c791905b808211156115c35760008160009055506001016115ab565b5090565b9056fea265627a7a72315820193850019c6954cccff9a8d97c11240babe1ce671ad2eaab31ab1cf9e3cc231164736f6c63430005100032",
  "source": "pragma solidity ^0.5.16;\n\nimport \"./zombiefeeding.sol\";\n\ncontract ZombieHelper is ZombieFeeding {\n    uint256 levelUpFee = 0.001 ether;\n\n    modifier aboveLevel(uint256 _level, uint256 _zombieId) {\n        require(zombies[_zombieId].level >= _level);\n        _;\n    }\n\n    function withdraw() external onlyOwner {\n        owner.transfer(address(this).balance);\n    }\n\n    function setLevelUpFee(uint256 _fee) external onlyOwner {\n        levelUpFee = _fee;\n    }\n\n    function levelUp(uint256 _zombieId) external payable {\n        require(msg.value == levelUpFee);\n        zombies[_zombieId].level++;\n    }\n\n    function changeName(uint256 _zombieId, string calldata _newName)\n        external\n        aboveLevel(2, _zombieId)\n    {\n        require(msg.sender == zombieToOwner[_zombieId]);\n        zombies[_zombieId].name = _newName;\n    }\n\n    function changeDna(uint256 _zombieId, uint256 _newDna)\n        external\n        aboveLevel(20, _zombieId)\n    {\n        require(msg.sender == zombieToOwner[_zombieId]);\n        zombies[_zombieId].dna = _newDna;\n    }\n\n    function getZombiesByOwner(address _owner)\n        external\n        view\n        returns (uint256[] memory)\n    {\n        uint256[] memory result = new uint256[](ownerZombieCount[_owner]);\n\n        uint256 counter = 0;\n        for (uint256 i = 0; i < zombies.length; i++) {\n            if (zombieToOwner[i] == _owner) {\n                result[counter] = i;\n                counter++;\n            }\n        }\n\n        return result;\n    }\n}\n",
  "sourcePath": "/home/cryptozombie/myCryptoZombie/contracts/zombiehelper.sol",
  "compiler": {
    "name": "solc",
    "version": "0.5.16+commit.9c3226ce.Emscripten.clang"
  },
  "schemaVersion": "3.4.2",
  "updatedAt": "2021-08-13T06:09:48.115Z",
  "devdoc": {
    "methods": {
      "transferOwnership(address)": {
        "details": "Allows the current owner to transfer control of the contract to a newOwner.",
        "params": {
          "newOwner": "The address to transfer ownership to."
        }
      }
    }
  },
  "userdoc": {
    "methods": {}
  }
}