{
  "contractName": "ZombieAttack",
  "abi": [
    {
      "anonymous": false,
      "inputs": [
        {
          "indexed": false,
          "internalType": "uint256",
          "name": "zombieId",
          "type": "uint256"
        },
        {
          "indexed": false,
          "internalType": "string",
          "name": "name",
          "type": "string"
        },
        {
          "indexed": false,
          "internalType": "uint256",
          "name": "dna",
          "type": "uint256"
        }
      ],
      "name": "NewZombie",
      "type": "event"
    },
    {
      "anonymous": false,
      "inputs": [
        {
          "indexed": true,
          "internalType": "address payable",
          "name": "previousOwner",
          "type": "address"
        },
        {
          "indexed": true,
          "internalType": "address payable",
          "name": "newOwner",
          "type": "address"
        }
      ],
      "name": "OwnershipTransferred",
      "type": "event"
    },
    {
      "constant": false,
      "inputs": [
        {
          "internalType": "uint256",
          "name": "_zombieId",
          "type": "uint256"
        },
        {
          "internalType": "uint256",
          "name": "_newDna",
          "type": "uint256"
        }
      ],
      "name": "changeDna",
      "outputs": [],
      "payable": false,
      "stateMutability": "nonpayable",
      "type": "function"
    },
    {
      "constant": false,
      "inputs": [
        {
          "internalType": "uint256",
          "name": "_zombieId",
          "type": "uint256"
        },
        {
          "internalType": "string",
          "name": "_newName",
          "type": "string"
        }
      ],
      "name": "changeName",
      "outputs": [],
      "payable": false,
      "stateMutability": "nonpayable",
      "type": "function"
    },
    {
      "constant": false,
      "inputs": [
        {
          "internalType": "string",
          "name": "_name",
          "type": "string"
        }
      ],
      "name": "createRandomZombie",
      "outputs": [],
      "payable": false,
      "stateMutability": "nonpayable",
      "type": "function"
    },
    {
      "constant": false,
      "inputs": [
        {
          "internalType": "uint256",
          "name": "_zombieId",
          "type": "uint256"
        },
        {
          "internalType": "uint256",
          "name": "_kittyId",
          "type": "uint256"
        }
      ],
      "name": "feedOnKitty",
      "outputs": [],
      "payable": false,
      "stateMutability": "nonpayable",
      "type": "function"
    },
    {
      "constant": true,
      "inputs": [
        {
          "internalType": "address",
          "name": "_owner",
          "type": "address"
        }
      ],
      "name": "getZombiesByOwner",
      "outputs": [
        {
          "internalType": "uint256[]",
          "name": "",
          "type": "uint256[]"
        }
      ],
      "payable": false,
      "stateMutability": "view",
      "type": "function"
    },
    {
      "constant": false,
      "inputs": [
        {
          "internalType": "uint256",
          "name": "_zombieId",
          "type": "uint256"
        }
      ],
      "name": "levelUp",
      "outputs": [],
      "payable": true,
      "stateMutability": "payable",
      "type": "function"
    },
    {
      "constant": true,
      "inputs": [],
      "name": "owner",
      "outputs": [
        {
          "internalType": "address payable",
          "name": "",
          "type": "address"
        }
      ],
      "payable": false,
      "stateMutability": "view",
      "type": "function"
    },
    {
      "constant": false,
      "inputs": [
        {
          "internalType": "address",
          "name": "_address",
          "type": "address"
        }
      ],
      "name": "setKittyContractAddress",
      "outputs": [],
      "payable": false,
      "stateMutability": "nonpayable",
      "type": "function"
    },
    {
      "constant": false,
      "inputs": [
        {
          "internalType": "uint256",
          "name": "_fee",
          "type": "uint256"
        }
      ],
      "name": "setLevelUpFee",
      "outputs": [],
      "payable": false,
      "stateMutability": "nonpayable",
      "type": "function"
    },
    {
      "constant": false,
      "inputs": [
        {
          "internalType": "address payable",
          "name": "newOwner",
          "type": "address"
        }
      ],
      "name": "transferOwnership",
      "outputs": [],
      "payable": false,
      "stateMutability": "nonpayable",
      "type": "function"
    },
    {
      "constant": false,
      "inputs": [],
      "name": "withdraw",
      "outputs": [],
      "payable": false,
      "stateMutability": "nonpayable",
      "type": "function"
    },
    {
      "constant": true,
      "inputs": [
        {
          "internalType": "uint256",
          "name": "",
          "type": "uint256"
        }
      ],
      "name": "zombieToOwner",
      "outputs": [
        {
          "internalType": "address",
          "name": "",
          "type": "address"
        }
      ],
      "payable": false,
      "stateMutability": "view",
      "type": "function"
    },
    {
      "constant": true,
      "inputs": [
        {
          "internalType": "uint256",
          "name": "",
          "type": "uint256"
        }
      ],
      "name": "zombies",
      "outputs": [
        {
          "internalType": "string",
          "name": "name",
          "type": "string"
        },
        {
          "internalType": "uint256",
          "name": "dna",
          "type": "uint256"
        },
        {
          "internalType": "uint32",
          "name": "level",
          "type": "uint32"
        },
        {
          "internalType": "uint32",
          "name": "readyTime",
          "type": "uint32"
        },
        {
          "internalType": "uint16",
          "name": "winCount",
          "type": "uint16"
        },
        {
          "internalType": "uint16",
          "name": "lossCount",
          "type": "uint16"
        }
      ],
      "payable": false,
      "stateMutability": "view",
      "type": "function"
    },
    {
      "constant": false,
      "inputs": [
        {
          "internalType": "uint256",
          "name": "_zombieId",
          "type": "uint256"
        },
        {
          "internalType": "uint256",
          "name": "_targetId",
          "type": "uint256"
        }
      ],
      "name": "attack",
      "outputs": [],
      "payable": false,
      "stateMutability": "nonpayable",
      "type": "function"
    }
  ],
  "bytecode": "0x60806040526010600155600154600a0a6002556201518060035566038d7ea4c6800060085560006009556046600a55336000806101000a81548173ffffffffffffffffffffffffffffffffffffffff021916908373ffffffffffffffffffffffffffffffffffffffff160217905550611a2e8061007d6000396000f3fe6080604052600436106100dd5760003560e01c80635faf28801161007f578063c39cbef111610059578063c39cbef114610541578063ccf670f8146105d1578063e1fa76381461060c578063f2fde38b14610651576100dd565b80635faf2880146103dd5780637bff0a01146104225780638da5cb5b146104ea576100dd565b80633ccfd60b116100bb5780633ccfd60b146102545780634412e1041461026b578063528b7b8f146103115780635f4623f11461038c576100dd565b80630ce90ec2146100e257806317a7f4cc146101105780632052465e14610155575b600080fd5b61010e600480360360208110156100f857600080fd5b81019080803590602001909291905050506106a2565b005b34801561011c57600080fd5b506101536004803603604081101561013357600080fd5b81019080803590602001909291908035906020019092919050505061070a565b005b34801561016157600080fd5b5061018e6004803603602081101561017857600080fd5b8101908080359060200190929190505050610895565b60405180806020018781526020018663ffffffff1663ffffffff1681526020018563ffffffff1663ffffffff1681526020018461ffff1661ffff1681526020018361ffff1661ffff168152602001828103825288818151815260200191508051906020019080838360005b838110156102145780820151818401526020810190506101f9565b50505050905090810190601f1680156102415780820380516001836020036101000a031916815260200191505b5097505050505050505060405180910390f35b34801561026057600080fd5b506102696109b2565b005b34801561027757600080fd5b506102ba6004803603602081101561028e57600080fd5b81019080803573ffffffffffffffffffffffffffffffffffffffff169060200190929190505050610a75565b6040518080602001828103825283818151815260200191508051906020019060200280838360005b838110156102fd5780820151818401526020810190506102e2565b505050509050019250505060405180910390f35b34801561031d57600080fd5b5061034a6004803603602081101561033457600080fd5b8101908080359060200190929190505050610ba2565b604051808273ffffffffffffffffffffffffffffffffffffffff1673ffffffffffffffffffffffffffffffffffffffff16815260200191505060405180910390f35b34801561039857600080fd5b506103db600480360360208110156103af57600080fd5b81019080803573ffffffffffffffffffffffffffffffffffffffff169060200190929190505050610bd5565b005b3480156103e957600080fd5b506104206004803603604081101561040057600080fd5b810190808035906020019092919080359060200190929190505050610c72565b005b34801561042e57600080fd5b506104e86004803603602081101561044557600080fd5b810190808035906020019064010000000081111561046257600080fd5b82018360208201111561047457600080fd5b8035906020019184600183028401116401000000008311171561049657600080fd5b91908080601f016020809104026020016040519081016040528093929190818152602001838380828437600081840152601f19601f820116905080830192505050505050509192919290505050610d4c565b005b3480156104f657600080fd5b506104ff610db3565b604051808273ffffffffffffffffffffffffffffffffffffffff1673ffffffffffffffffffffffffffffffffffffffff16815260200191505060405180910390f35b34801561054d57600080fd5b506105cf6004803603604081101561056457600080fd5b81019080803590602001909291908035906020019064010000000081111561058b57600080fd5b82018360208201111561059d57600080fd5b803590602001918460018302840111640100000000831117156105bf57600080fd5b9091929391929390505050610dd8565b005b3480156105dd57600080fd5b5061060a600480360360208110156105f457600080fd5b8101908080359060200190929190505050610ebe565b005b34801561061857600080fd5b5061064f6004803603604081101561062f57600080fd5b810190808035906020019092919080359060200190929190505050610f21565b005b34801561065d57600080fd5b506106a06004803603602081101561067457600080fd5b81019080803573ffffffffffffffffffffffffffffffffffffffff169060200190929190505050611156565b005b60085434146106b057600080fd5b600481815481106106bd57fe5b9060005260206000209060030201600201600081819054906101000a900463ffffffff168092919060010191906101000a81548163ffffffff021916908363ffffffff1602179055505050565b6000600760009054906101000a900473ffffffffffffffffffffffffffffffffffffffff1673ffffffffffffffffffffffffffffffffffffffff1663e98b7f4d836040518263ffffffff1660e01b8152600401808281526020019150506101406040518083038186803b15801561078057600080fd5b505afa158015610794573d6000803e3d6000fd5b505050506040513d6101408110156107ab57600080fd5b81019080805190602001909291908051906020019092919080519060200190929190805190602001909291908051906020019092919080519060200190929190805190602001909291908051906020019092919080519060200190929190805190602001909291905050509091929394959697985090919293949596975090919293949596509091929394955090919293945090919293509091925090915090508091505061089083826040518060400160405280600581526020017f6b697474790000000000000000000000000000000000000000000000000000008152506112a7565b505050565b600481815481106108a257fe5b9060005260206000209060030201600091509050806000018054600181600116156101000203166002900480601f01602080910402602001604051908101604052809291908181526020018280546001816001161561010002031660029004801561094e5780601f106109235761010080835404028352916020019161094e565b820191906000526020600020905b81548152906001019060200180831161093157829003601f168201915b5050505050908060010154908060020160009054906101000a900463ffffffff16908060020160049054906101000a900463ffffffff16908060020160089054906101000a900461ffff169080600201600a9054906101000a900461ffff16905086565b6000809054906101000a900473ffffffffffffffffffffffffffffffffffffffff1673ffffffffffffffffffffffffffffffffffffffff163373ffffffffffffffffffffffffffffffffffffffff1614610a0b57600080fd5b6000809054906101000a900473ffffffffffffffffffffffffffffffffffffffff1673ffffffffffffffffffffffffffffffffffffffff166108fc479081150290604051600060405180830381858888f19350505050158015610a72573d6000803e3d6000fd5b50565b606080600660008473ffffffffffffffffffffffffffffffffffffffff1673ffffffffffffffffffffffffffffffffffffffff16815260200190815260200160002054604051908082528060200260200182016040528015610ae65781602001602082028038833980820191505090505b509050600080905060008090505b600480549050811015610b97578473ffffffffffffffffffffffffffffffffffffffff166005600083815260200190815260200160002060009054906101000a900473ffffffffffffffffffffffffffffffffffffffff1673ffffffffffffffffffffffffffffffffffffffff161415610b8a5780838381518110610b7557fe5b60200260200101818152505081806001019250505b8080600101915050610af4565b508192505050919050565b60056020528060005260406000206000915054906101000a900473ffffffffffffffffffffffffffffffffffffffff1681565b6000809054906101000a900473ffffffffffffffffffffffffffffffffffffffff1673ffffffffffffffffffffffffffffffffffffffff163373ffffffffffffffffffffffffffffffffffffffff1614610c2e57600080fd5b80600760006101000a81548173ffffffffffffffffffffffffffffffffffffffff021916908373ffffffffffffffffffffffffffffffffffffffff16021790555050565b6014828160048281548110610c8357fe5b906000526020600020906003020160020160009054906101000a900463ffffffff1663ffffffff161015610cb657600080fd5b836005600082815260200190815260200160002060009054906101000a900473ffffffffffffffffffffffffffffffffffffffff1673ffffffffffffffffffffffffffffffffffffffff163373ffffffffffffffffffffffffffffffffffffffff1614610d2257600080fd5b8360048681548110610d3057fe5b9060005260206000209060030201600101819055505050505050565b6000600660003373ffffffffffffffffffffffffffffffffffffffff1673ffffffffffffffffffffffffffffffffffffffff1681526020019081526020016000205414610d9857600080fd5b6000610da382611478565b9050610daf8282611506565b5050565b6000809054906101000a900473ffffffffffffffffffffffffffffffffffffffff1681565b6002838160048281548110610de957fe5b906000526020600020906003020160020160009054906101000a900463ffffffff1663ffffffff161015610e1c57600080fd5b846005600082815260200190815260200160002060009054906101000a900473ffffffffffffffffffffffffffffffffffffffff1673ffffffffffffffffffffffffffffffffffffffff163373ffffffffffffffffffffffffffffffffffffffff1614610e8857600080fd5b848460048881548110610e9757fe5b90600052602060002090600302016000019190610eb59291906118d4565b50505050505050565b6000809054906101000a900473ffffffffffffffffffffffffffffffffffffffff1673ffffffffffffffffffffffffffffffffffffffff163373ffffffffffffffffffffffffffffffffffffffff1614610f1757600080fd5b8060088190555050565b816005600082815260200190815260200160002060009054906101000a900473ffffffffffffffffffffffffffffffffffffffff1673ffffffffffffffffffffffffffffffffffffffff163373ffffffffffffffffffffffffffffffffffffffff1614610f8d57600080fd5b600060048481548110610f9c57fe5b90600052602060002090600302019050600060048481548110610fbb57fe5b906000526020600020906003020190506000610fd760646117d8565b9050600a5481116110d65782600201600881819054906101000a900461ffff168092919060010191906101000a81548161ffff021916908361ffff1602179055505082600201600081819054906101000a900463ffffffff168092919060010191906101000a81548163ffffffff021916908363ffffffff1602179055505081600201600a81819054906101000a900461ffff168092919060010191906101000a81548161ffff021916908361ffff160217905550506110d18683600101546040518060400160405280600681526020017f7a6f6d62696500000000000000000000000000000000000000000000000000008152506112a7565b611145565b82600201600a81819054906101000a900461ffff168092919060010191906101000a81548161ffff021916908361ffff1602179055505081600201600881819054906101000a900461ffff168092919060010191906101000a81548161ffff021916908361ffff160217905550505b61114e83611867565b505050505050565b6000809054906101000a900473ffffffffffffffffffffffffffffffffffffffff1673ffffffffffffffffffffffffffffffffffffffff163373ffffffffffffffffffffffffffffffffffffffff16146111af57600080fd5b600073ffffffffffffffffffffffffffffffffffffffff168173ffffffffffffffffffffffffffffffffffffffff1614156111e957600080fd5b8073ffffffffffffffffffffffffffffffffffffffff166000809054906101000a900473ffffffffffffffffffffffffffffffffffffffff1673ffffffffffffffffffffffffffffffffffffffff167f8be0079c531659141344cd1fd0a4f28419497f9722a3daafe3b4186f6b6457e060405160405180910390a3806000806101000a81548173ffffffffffffffffffffffffffffffffffffffff021916908373ffffffffffffffffffffffffffffffffffffffff16021790555050565b826005600082815260200190815260200160002060009054906101000a900473ffffffffffffffffffffffffffffffffffffffff1673ffffffffffffffffffffffffffffffffffffffff163373ffffffffffffffffffffffffffffffffffffffff161461131357600080fd5b60006004858154811061132257fe5b9060005260206000209060030201905061133b81611891565b61134457600080fd5b600254848161134f57fe5b06935060006002858360010154018161136457fe5b04905060405180807f6b6974747900000000000000000000000000000000000000000000000000000081525060050190506040518091039020846040516020018082805190602001908083835b602083106113d457805182526020820191506020810190506020830392506113b1565b6001836020036101000a0380198251168184511680821785525050505050509050019150506040516020818303038152906040528051906020012014156114285760636064828161142157fe5b0682030190505b6114676040518060400160405280600681526020017f4e6f4e616d65000000000000000000000000000000000000000000000000000081525082611506565b61147082611867565b505050505050565b600080826040516020018082805190602001908083835b602083106114b2578051825260208201915060208101905060208303925061148f565b6001836020036101000a0380198251168184511680821785525050505050509050019150506040516020818303038152906040528051906020012060001c905060025481816114fd57fe5b06915050919050565b6000600160046040518060c00160405280868152602001858152602001600163ffffffff168152602001600354420163ffffffff168152602001600061ffff168152602001600061ffff1681525090806001815401808255809150509060018203906000526020600020906003020160009091929091909150600082015181600001908051906020019061159b929190611954565b506020820151816001015560408201518160020160006101000a81548163ffffffff021916908363ffffffff16021790555060608201518160020160046101000a81548163ffffffff021916908363ffffffff16021790555060808201518160020160086101000a81548161ffff021916908361ffff16021790555060a082015181600201600a6101000a81548161ffff021916908361ffff1602179055505050039050336005600083815260200190815260200160002060006101000a81548173ffffffffffffffffffffffffffffffffffffffff021916908373ffffffffffffffffffffffffffffffffffffffff1602179055506116e46001600660003373ffffffffffffffffffffffffffffffffffffffff1673ffffffffffffffffffffffffffffffffffffffff168152602001908152602001600020546118b890919063ffffffff16565b600660003373ffffffffffffffffffffffffffffffffffffffff1673ffffffffffffffffffffffffffffffffffffffff168152602001908152602001600020819055507f88f026aacbbecc90c18411df4b1185fd8d9be2470f1962f192bf84a27d0704b78184846040518084815260200180602001838152602001828103825284818151815260200191508051906020019080838360005b8381101561179757808201518184015260208101905061177c565b50505050905090810190601f1680156117c45780820380516001836020036101000a031916815260200191505b5094505050505060405180910390a1505050565b6000600960008154809291906001019190505550814233600954604051602001808481526020018373ffffffffffffffffffffffffffffffffffffffff1673ffffffffffffffffffffffffffffffffffffffff1660601b815260140182815260200193505050506040516020818303038152906040528051906020012060001c8161185f57fe5b069050919050565b60035442018160020160046101000a81548163ffffffff021916908363ffffffff16021790555050565b6000428260020160049054906101000a900463ffffffff1663ffffffff1611159050919050565b6000808284019050838110156118ca57fe5b8091505092915050565b828054600181600116156101000203166002900490600052602060002090601f016020900481019282601f1061191557803560ff1916838001178555611943565b82800160010185558215611943579182015b82811115611942578235825591602001919060010190611927565b5b50905061195091906119d4565b5090565b828054600181600116156101000203166002900490600052602060002090601f016020900481019282601f1061199557805160ff19168380011785556119c3565b828001600101855582156119c3579182015b828111156119c25782518255916020019190600101906119a7565b5b5090506119d091906119d4565b5090565b6119f691905b808211156119f25760008160009055506001016119da565b5090565b9056fea265627a7a72315820a3377b120f29f6d4309cbfd33715da12c86bcebdd545169d4f76cdfc999f3ec864736f6c63430005100032",
  "source": "pragma solidity ^0.5.16;\n\nimport \"./zombiehelper.sol\";\n\ncontract ZombieAttack is ZombieHelper {\n    uint256 randNonce = 0;\n    uint256 attackVictoryProbability = 70;\n\n    function randMod(uint256 _modulus) internal returns (uint256) {\n        randNonce++;\n        return\n            uint256(keccak256(abi.encodePacked(now, msg.sender, randNonce))) %\n            _modulus;\n    }\n\n    function attack(uint256 _zombieId, uint256 _targetId)\n        external\n        ownerOfMine(_zombieId)\n    {\n        Zombie storage myZombie = zombies[_zombieId];\n        Zombie storage enemyZombie = zombies[_targetId];\n        uint256 rand = randMod(100);\n        if (rand <= attackVictoryProbability) {\n            myZombie.winCount++;\n            myZombie.level++;\n            enemyZombie.lossCount++;\n            feedAndMultiply(_zombieId, enemyZombie.dna, \"zombie\");\n        } else {\n            myZombie.lossCount++;\n            enemyZombie.winCount++;\n        }\n        _triggerCooldown(myZombie);\n    }\n}\n",
  "sourcePath": "/home/cryptozombie/myCryptoZombie/contracts/zombieattack.sol",
  "compiler": {
    "name": "solc",
    "version": "0.5.16+commit.9c3226ce.Emscripten.clang"
  },
  "schemaVersion": "3.4.2",
  "updatedAt": "2021-08-13T17:30:22.322Z",
  "devdoc": {
    "methods": {
      "transferOwnership(address)": {
        "details": "Allows the current owner to transfer control of the contract to a newOwner.",
        "params": {
          "newOwner": "The address to transfer ownership to."
        }
      }
    }
  },
  "userdoc": {
    "methods": {}
  }
}