{
  "contractName": "ZombieFeeding",
  "abi": [
    {
      "anonymous": false,
      "inputs": [
        {
          "indexed": false,
          "internalType": "uint256",
          "name": "zombieId",
          "type": "uint256"
        },
        {
          "indexed": false,
          "internalType": "string",
          "name": "name",
          "type": "string"
        },
        {
          "indexed": false,
          "internalType": "uint256",
          "name": "dna",
          "type": "uint256"
        }
      ],
      "name": "NewZombie",
      "type": "event"
    },
    {
      "anonymous": false,
      "inputs": [
        {
          "indexed": true,
          "internalType": "address",
          "name": "previousOwner",
          "type": "address"
        },
        {
          "indexed": true,
          "internalType": "address",
          "name": "newOwner",
          "type": "address"
        }
      ],
      "name": "OwnershipTransferred",
      "type": "event"
    },
    {
      "constant": false,
      "inputs": [
        {
          "internalType": "string",
          "name": "_name",
          "type": "string"
        }
      ],
      "name": "createRandomZombie",
      "outputs": [],
      "payable": false,
      "stateMutability": "nonpayable",
      "type": "function"
    },
    {
      "constant": true,
      "inputs": [],
      "name": "owner",
      "outputs": [
        {
          "internalType": "address",
          "name": "",
          "type": "address"
        }
      ],
      "payable": false,
      "stateMutability": "view",
      "type": "function"
    },
    {
      "constant": false,
      "inputs": [
        {
          "internalType": "address",
          "name": "newOwner",
          "type": "address"
        }
      ],
      "name": "transferOwnership",
      "outputs": [],
      "payable": false,
      "stateMutability": "nonpayable",
      "type": "function"
    },
    {
      "constant": true,
      "inputs": [
        {
          "internalType": "uint256",
          "name": "",
          "type": "uint256"
        }
      ],
      "name": "zombieToOwner",
      "outputs": [
        {
          "internalType": "address",
          "name": "",
          "type": "address"
        }
      ],
      "payable": false,
      "stateMutability": "view",
      "type": "function"
    },
    {
      "constant": true,
      "inputs": [
        {
          "internalType": "uint256",
          "name": "",
          "type": "uint256"
        }
      ],
      "name": "zombies",
      "outputs": [
        {
          "internalType": "string",
          "name": "name",
          "type": "string"
        },
        {
          "internalType": "uint256",
          "name": "dna",
          "type": "uint256"
        },
        {
          "internalType": "uint32",
          "name": "level",
          "type": "uint32"
        },
        {
          "internalType": "uint32",
          "name": "readyTime",
          "type": "uint32"
        }
      ],
      "payable": false,
      "stateMutability": "view",
      "type": "function"
    },
    {
      "constant": false,
      "inputs": [
        {
          "internalType": "address",
          "name": "_address",
          "type": "address"
        }
      ],
      "name": "setKittyContractAddress",
      "outputs": [],
      "payable": false,
      "stateMutability": "nonpayable",
      "type": "function"
    },
    {
      "constant": false,
      "inputs": [
        {
          "internalType": "uint256",
          "name": "_zombieId",
          "type": "uint256"
        },
        {
          "internalType": "uint256",
          "name": "_targetDna",
          "type": "uint256"
        },
        {
          "internalType": "string",
          "name": "_species",
          "type": "string"
        }
      ],
      "name": "feedAndMultiply",
      "outputs": [],
      "payable": false,
      "stateMutability": "nonpayable",
      "type": "function"
    },
    {
      "constant": false,
      "inputs": [
        {
          "internalType": "uint256",
          "name": "_zombieId",
          "type": "uint256"
        },
        {
          "internalType": "uint256",
          "name": "_kittyId",
          "type": "uint256"
        }
      ],
      "name": "feedOnKitty",
      "outputs": [],
      "payable": false,
      "stateMutability": "nonpayable",
      "type": "function"
    }
  ],
  "bytecode": "0x60806040526010600155600154600a0a60025562015180600355336000806101000a81548173ffffffffffffffffffffffffffffffffffffffff021916908373ffffffffffffffffffffffffffffffffffffffff160217905550610eec806100686000396000f3fe608060405234801561001057600080fd5b50600436106100885760003560e01c80636b0bfc801161005b5780636b0bfc801461024b5780637bff0a011461031a5780638da5cb5b146103d5578063f2fde38b1461041f57610088565b806317a7f4cc1461008d5780632052465e146100c5578063528b7b8f146101995780635f4623f114610207575b600080fd5b6100c3600480360360408110156100a357600080fd5b810190808035906020019092919080359060200190929190505050610463565b005b6100f1600480360360208110156100db57600080fd5b81019080803590602001909291905050506105ee565b60405180806020018581526020018463ffffffff1663ffffffff1681526020018363ffffffff1663ffffffff168152602001828103825286818151815260200191508051906020019080838360005b8381101561015b578082015181840152602081019050610140565b50505050905090810190601f1680156101885780820380516001836020036101000a031916815260200191505b509550505050505060405180910390f35b6101c5600480360360208110156101af57600080fd5b81019080803590602001909291905050506106e3565b604051808273ffffffffffffffffffffffffffffffffffffffff1673ffffffffffffffffffffffffffffffffffffffff16815260200191505060405180910390f35b6102496004803603602081101561021d57600080fd5b81019080803573ffffffffffffffffffffffffffffffffffffffff169060200190929190505050610716565b005b6103186004803603606081101561026157600080fd5b8101908080359060200190929190803590602001909291908035906020019064010000000081111561029257600080fd5b8201836020820111156102a457600080fd5b803590602001918460018302840111640100000000831117156102c657600080fd5b91908080601f016020809104026020016040519081016040528093929190818152602001838380828437600081840152601f19601f8201169050808301925050505050505091929192905050506107b3565b005b6103d36004803603602081101561033057600080fd5b810190808035906020019064010000000081111561034d57600080fd5b82018360208201111561035f57600080fd5b8035906020019184600183028401116401000000008311171561038157600080fd5b91908080601f016020809104026020016040519081016040528093929190818152602001838380828437600081840152601f19601f820116905080830192505050505050509192919290505050610978565b005b6103dd6109df565b604051808273ffffffffffffffffffffffffffffffffffffffff1673ffffffffffffffffffffffffffffffffffffffff16815260200191505060405180910390f35b6104616004803603602081101561043557600080fd5b81019080803573ffffffffffffffffffffffffffffffffffffffff169060200190929190505050610a04565b005b6000600760009054906101000a900473ffffffffffffffffffffffffffffffffffffffff1673ffffffffffffffffffffffffffffffffffffffff1663e98b7f4d836040518263ffffffff1660e01b8152600401808281526020019150506101406040518083038186803b1580156104d957600080fd5b505afa1580156104ed573d6000803e3d6000fd5b505050506040513d61014081101561050457600080fd5b8101908080519060200190929190805190602001909291908051906020019092919080519060200190929190805190602001909291908051906020019092919080519060200190929190805190602001909291908051906020019092919080519060200190929190505050909192939495969798509091929394959697509091929394959650909192939495509091929394509091929350909192509091509050809150506105e983826040518060400160405280600581526020017f6b697474790000000000000000000000000000000000000000000000000000008152506107b3565b505050565b600481815481106105fb57fe5b9060005260206000209060030201600091509050806000018054600181600116156101000203166002900480601f0160208091040260200160405190810160405280929190818152602001828054600181600116156101000203166002900480156106a75780601f1061067c576101008083540402835291602001916106a7565b820191906000526020600020905b81548152906001019060200180831161068a57829003601f168201915b5050505050908060010154908060020160009054906101000a900463ffffffff16908060020160049054906101000a900463ffffffff16905084565b60056020528060005260406000206000915054906101000a900473ffffffffffffffffffffffffffffffffffffffff1681565b6000809054906101000a900473ffffffffffffffffffffffffffffffffffffffff1673ffffffffffffffffffffffffffffffffffffffff163373ffffffffffffffffffffffffffffffffffffffff161461076f57600080fd5b80600760006101000a81548173ffffffffffffffffffffffffffffffffffffffff021916908373ffffffffffffffffffffffffffffffffffffffff16021790555050565b6005600084815260200190815260200160002060009054906101000a900473ffffffffffffffffffffffffffffffffffffffff1673ffffffffffffffffffffffffffffffffffffffff163373ffffffffffffffffffffffffffffffffffffffff161461081e57600080fd5b60006004848154811061082d57fe5b90600052602060002090600302019050600254838161084857fe5b06925060006002848360010154018161085d57fe5b04905060405160200180807f6b69747479000000000000000000000000000000000000000000000000000000815250600501905060405160208183030381529060405280519060200120836040516020018082805190602001908083835b602083106108de57805182526020820191506020810190506020830392506108bb565b6001836020036101000a0380198251168184511680821785525050505050509050019150506040516020818303038152906040528051906020012014156109325760636064828161092b57fe5b0682030190505b6109716040518060400160405280600681526020017f4e6f4e616d65000000000000000000000000000000000000000000000000000081525082610b55565b5050505050565b6000600660003373ffffffffffffffffffffffffffffffffffffffff1673ffffffffffffffffffffffffffffffffffffffff16815260200190815260200160002054146109c457600080fd5b60006109cf82610d84565b90506109db8282610b55565b5050565b6000809054906101000a900473ffffffffffffffffffffffffffffffffffffffff1681565b6000809054906101000a900473ffffffffffffffffffffffffffffffffffffffff1673ffffffffffffffffffffffffffffffffffffffff163373ffffffffffffffffffffffffffffffffffffffff1614610a5d57600080fd5b600073ffffffffffffffffffffffffffffffffffffffff168173ffffffffffffffffffffffffffffffffffffffff161415610a9757600080fd5b8073ffffffffffffffffffffffffffffffffffffffff166000809054906101000a900473ffffffffffffffffffffffffffffffffffffffff1673ffffffffffffffffffffffffffffffffffffffff167f8be0079c531659141344cd1fd0a4f28419497f9722a3daafe3b4186f6b6457e060405160405180910390a3806000806101000a81548173ffffffffffffffffffffffffffffffffffffffff021916908373ffffffffffffffffffffffffffffffffffffffff16021790555050565b6000600160046040518060800160405280868152602001858152602001600163ffffffff168152602001600354420163ffffffff16815250908060018154018082558091505090600182039060005260206000209060030201600090919290919091506000820151816000019080519060200190610bd4929190610e12565b506020820151816001015560408201518160020160006101000a81548163ffffffff021916908363ffffffff16021790555060608201518160020160046101000a81548163ffffffff021916908363ffffffff1602179055505050039050336005600083815260200190815260200160002060006101000a81548173ffffffffffffffffffffffffffffffffffffffff021916908373ffffffffffffffffffffffffffffffffffffffff160217905550600660003373ffffffffffffffffffffffffffffffffffffffff1673ffffffffffffffffffffffffffffffffffffffff168152602001908152602001600020600081548092919060010191905055507f88f026aacbbecc90c18411df4b1185fd8d9be2470f1962f192bf84a27d0704b78184846040518084815260200180602001838152602001828103825284818151815260200191508051906020019080838360005b83811015610d43578082015181840152602081019050610d28565b50505050905090810190601f168015610d705780820380516001836020036101000a031916815260200191505b5094505050505060405180910390a1505050565b600080826040516020018082805190602001908083835b60208310610dbe5780518252602082019150602081019050602083039250610d9b565b6001836020036101000a0380198251168184511680821785525050505050509050019150506040516020818303038152906040528051906020012060001c90506002548181610e0957fe5b06915050919050565b828054600181600116156101000203166002900490600052602060002090601f016020900481019282601f10610e5357805160ff1916838001178555610e81565b82800160010185558215610e81579182015b82811115610e80578251825591602001919060010190610e65565b5b509050610e8e9190610e92565b5090565b610eb491905b80821115610eb0576000816000905550600101610e98565b5090565b9056fea265627a7a72315820b77b2885a100593560a3406c05a5437aa30ad1bf20c58303363b0045b2654e6164736f6c63430005100032",
  "source": "pragma solidity ^0.5.16;\n\nimport \"./zombiefactory.sol\";\n\ncontract KittyInterface {\n    function getKitty(uint256 _id)\n        external\n        view\n        returns (\n            bool isGestating,\n            bool isReady,\n            uint256 cooldownIndex,\n            uint256 nextActionAt,\n            uint256 siringWithId,\n            uint256 birthTime,\n            uint256 matronId,\n            uint256 sireId,\n            uint256 generation,\n            uint256 genes\n        );\n}\n\n// クリプトキティーズのgetKitty()関数（コントラクト）のインターフェースを用意\n// function getKitty(uint256 _id) external view returns (\n//     bool isGestating,\n//     bool isReady,\n//     uint256 cooldownIndex,\n//     uint256 nextActionAt,\n//     uint256 siringWithId,\n//     uint256 birthTime,\n//     uint256 matronId,\n//     uint256 sireId,\n//     uint256 generation,\n//     uint256 genes\n// ) {\n//     Kitty storage kit = kitties[_id];\n\n//     // if this variable is 0 then it's not gestating\n//     isGestating = (kit.siringWithId != 0);\n//     isReady = (kit.cooldownEndBlock <= block.number);\n//     cooldownIndex = uint256(kit.cooldownIndex);\n//     nextActionAt = uint256(kit.cooldownEndBlock);\n//     siringWithId = uint256(kit.siringWithId);\n//     birthTime = uint256(kit.birthTime);\n//     matronId = uint256(kit.matronId);\n//     sireId = uint256(kit.sireId);\n//     generation = uint256(kit.generation);\n//     genes = kit.genes;\n// }\n\ncontract ZombieFeeding is ZombieFactory {\n    KittyInterface kittyContract;\n\n    function setKittyContractAddress(address _address) external onlyOwner {\n        kittyContract = KittyInterface(_address);\n    }\n\n    function _triggerCooldown(Zombie storage _zombie) internal {\n        _zombie.readyTime = uint32(now + cooldownTime);\n    }\n\n    function _isReady(Zombie storage _zombie) internal view returns (bool) {\n        return (_zombie.readyTime <= now);\n    }\n\n    function feedAndMultiply(\n        uint256 _zombieId,\n        uint256 _targetDna,\n        string memory _species\n    ) public {\n        require(msg.sender == zombieToOwner[_zombieId]);\n        Zombie storage myZombie = zombies[_zombieId];\n        _targetDna = _targetDna % dnaModulus;\n        uint256 newDna = (myZombie.dna + _targetDna) / 2;\n\n        if (\n            keccak256(abi.encodePacked(_species)) ==\n            keccak256(abi.encodePacked(\"kitty\"))\n        ) {\n            newDna = newDna - (newDna % 100) + 99;\n        }\n        _createZombie(\"NoName\", newDna);\n    }\n\n    function feedOnKitty(uint256 _zombieId, uint256 _kittyId) public {\n        uint256 kittyDna;\n        (, , , , , , , , , kittyDna) = kittyContract.getKitty(_kittyId);\n        feedAndMultiply(_zombieId, kittyDna, \"kitty\");\n    }\n}\n",
  "sourcePath": "/home/cryptozombie/myCryptoZombie/contracts/zombiefeeding.sol",
  "compiler": {
    "name": "solc",
    "version": "0.5.16+commit.9c3226ce.Emscripten.clang"
  },
  "schemaVersion": "3.4.2",
  "updatedAt": "2021-08-13T01:01:19.208Z",
  "devdoc": {
    "methods": {
      "transferOwnership(address)": {
        "details": "Allows the current owner to transfer control of the contract to a newOwner.",
        "params": {
          "newOwner": "The address to transfer ownership to."
        }
      }
    }
  },
  "userdoc": {
    "methods": {}
  }
}