{
  "contractName": "ZombieFactory",
  "abi": [
    {
      "anonymous": false,
      "inputs": [
        {
          "indexed": false,
          "internalType": "uint256",
          "name": "zombieId",
          "type": "uint256"
        },
        {
          "indexed": false,
          "internalType": "string",
          "name": "name",
          "type": "string"
        },
        {
          "indexed": false,
          "internalType": "uint256",
          "name": "dna",
          "type": "uint256"
        }
      ],
      "name": "NewZombie",
      "type": "event"
    },
    {
      "anonymous": false,
      "inputs": [
        {
          "indexed": true,
          "internalType": "address payable",
          "name": "previousOwner",
          "type": "address"
        },
        {
          "indexed": true,
          "internalType": "address payable",
          "name": "newOwner",
          "type": "address"
        }
      ],
      "name": "OwnershipTransferred",
      "type": "event"
    },
    {
      "constant": true,
      "inputs": [],
      "name": "owner",
      "outputs": [
        {
          "internalType": "address payable",
          "name": "",
          "type": "address"
        }
      ],
      "payable": false,
      "stateMutability": "view",
      "type": "function"
    },
    {
      "constant": false,
      "inputs": [
        {
          "internalType": "address payable",
          "name": "newOwner",
          "type": "address"
        }
      ],
      "name": "transferOwnership",
      "outputs": [],
      "payable": false,
      "stateMutability": "nonpayable",
      "type": "function"
    },
    {
      "constant": true,
      "inputs": [
        {
          "internalType": "uint256",
          "name": "",
          "type": "uint256"
        }
      ],
      "name": "zombieToOwner",
      "outputs": [
        {
          "internalType": "address",
          "name": "",
          "type": "address"
        }
      ],
      "payable": false,
      "stateMutability": "view",
      "type": "function"
    },
    {
      "constant": true,
      "inputs": [
        {
          "internalType": "uint256",
          "name": "",
          "type": "uint256"
        }
      ],
      "name": "zombies",
      "outputs": [
        {
          "internalType": "string",
          "name": "name",
          "type": "string"
        },
        {
          "internalType": "uint256",
          "name": "dna",
          "type": "uint256"
        },
        {
          "internalType": "uint32",
          "name": "level",
          "type": "uint32"
        },
        {
          "internalType": "uint32",
          "name": "readyTime",
          "type": "uint32"
        },
        {
          "internalType": "uint16",
          "name": "winCount",
          "type": "uint16"
        },
        {
          "internalType": "uint16",
          "name": "lossCount",
          "type": "uint16"
        }
      ],
      "payable": false,
      "stateMutability": "view",
      "type": "function"
    },
    {
      "constant": false,
      "inputs": [
        {
          "internalType": "string",
          "name": "_name",
          "type": "string"
        }
      ],
      "name": "createRandomZombie",
      "outputs": [],
      "payable": false,
      "stateMutability": "nonpayable",
      "type": "function"
    }
  ],
  "bytecode": "0x60806040526010600155600154600a0a60025562015180600355336000806101000a81548173ffffffffffffffffffffffffffffffffffffffff021916908373ffffffffffffffffffffffffffffffffffffffff160217905550610a88806100686000396000f3fe608060405234801561001057600080fd5b50600436106100575760003560e01c80632052465e1461005c578063528b7b8f1461014e5780637bff0a01146101bc5780638da5cb5b14610277578063f2fde38b146102c1575b600080fd5b6100886004803603602081101561007257600080fd5b8101908080359060200190929190505050610305565b60405180806020018781526020018663ffffffff1663ffffffff1681526020018563ffffffff1663ffffffff1681526020018461ffff1661ffff1681526020018361ffff1661ffff168152602001828103825288818151815260200191508051906020019080838360005b8381101561010e5780820151818401526020810190506100f3565b50505050905090810190601f16801561013b5780820380516001836020036101000a031916815260200191505b5097505050505050505060405180910390f35b61017a6004803603602081101561016457600080fd5b8101908080359060200190929190505050610422565b604051808273ffffffffffffffffffffffffffffffffffffffff1673ffffffffffffffffffffffffffffffffffffffff16815260200191505060405180910390f35b610275600480360360208110156101d257600080fd5b81019080803590602001906401000000008111156101ef57600080fd5b82018360208201111561020157600080fd5b8035906020019184600183028401116401000000008311171561022357600080fd5b91908080601f016020809104026020016040519081016040528093929190818152602001838380828437600081840152601f19601f820116905080830192505050505050509192919290505050610455565b005b61027f6104bc565b604051808273ffffffffffffffffffffffffffffffffffffffff1673ffffffffffffffffffffffffffffffffffffffff16815260200191505060405180910390f35b610303600480360360208110156102d757600080fd5b81019080803573ffffffffffffffffffffffffffffffffffffffff1690602001909291905050506104e1565b005b6004818154811061031257fe5b9060005260206000209060030201600091509050806000018054600181600116156101000203166002900480601f0160208091040260200160405190810160405280929190818152602001828054600181600116156101000203166002900480156103be5780601f10610393576101008083540402835291602001916103be565b820191906000526020600020905b8154815290600101906020018083116103a157829003601f168201915b5050505050908060010154908060020160009054906101000a900463ffffffff16908060020160049054906101000a900463ffffffff16908060020160089054906101000a900461ffff169080600201600a9054906101000a900461ffff16905086565b60056020528060005260406000206000915054906101000a900473ffffffffffffffffffffffffffffffffffffffff1681565b6000600660003373ffffffffffffffffffffffffffffffffffffffff1673ffffffffffffffffffffffffffffffffffffffff16815260200190815260200160002054146104a157600080fd5b60006104ac82610632565b90506104b882826106c0565b5050565b6000809054906101000a900473ffffffffffffffffffffffffffffffffffffffff1681565b6000809054906101000a900473ffffffffffffffffffffffffffffffffffffffff1673ffffffffffffffffffffffffffffffffffffffff163373ffffffffffffffffffffffffffffffffffffffff161461053a57600080fd5b600073ffffffffffffffffffffffffffffffffffffffff168173ffffffffffffffffffffffffffffffffffffffff16141561057457600080fd5b8073ffffffffffffffffffffffffffffffffffffffff166000809054906101000a900473ffffffffffffffffffffffffffffffffffffffff1673ffffffffffffffffffffffffffffffffffffffff167f8be0079c531659141344cd1fd0a4f28419497f9722a3daafe3b4186f6b6457e060405160405180910390a3806000806101000a81548173ffffffffffffffffffffffffffffffffffffffff021916908373ffffffffffffffffffffffffffffffffffffffff16021790555050565b600080826040516020018082805190602001908083835b6020831061066c5780518252602082019150602081019050602083039250610649565b6001836020036101000a0380198251168184511680821785525050505050509050019150506040516020818303038152906040528051906020012060001c905060025481816106b757fe5b06915050919050565b6000600160046040518060c00160405280868152602001858152602001600163ffffffff168152602001600354420163ffffffff168152602001600061ffff168152602001600061ffff168152509080600181540180825580915050906001820390600052602060002090600302016000909192909190915060008201518160000190805190602001906107559291906109ae565b506020820151816001015560408201518160020160006101000a81548163ffffffff021916908363ffffffff16021790555060608201518160020160046101000a81548163ffffffff021916908363ffffffff16021790555060808201518160020160086101000a81548161ffff021916908361ffff16021790555060a082015181600201600a6101000a81548161ffff021916908361ffff1602179055505050039050336005600083815260200190815260200160002060006101000a81548173ffffffffffffffffffffffffffffffffffffffff021916908373ffffffffffffffffffffffffffffffffffffffff16021790555061089e6001600660003373ffffffffffffffffffffffffffffffffffffffff1673ffffffffffffffffffffffffffffffffffffffff1681526020019081526020016000205461099290919063ffffffff16565b600660003373ffffffffffffffffffffffffffffffffffffffff1673ffffffffffffffffffffffffffffffffffffffff168152602001908152602001600020819055507f88f026aacbbecc90c18411df4b1185fd8d9be2470f1962f192bf84a27d0704b78184846040518084815260200180602001838152602001828103825284818151815260200191508051906020019080838360005b83811015610951578082015181840152602081019050610936565b50505050905090810190601f16801561097e5780820380516001836020036101000a031916815260200191505b5094505050505060405180910390a1505050565b6000808284019050838110156109a457fe5b8091505092915050565b828054600181600116156101000203166002900490600052602060002090601f016020900481019282601f106109ef57805160ff1916838001178555610a1d565b82800160010185558215610a1d579182015b82811115610a1c578251825591602001919060010190610a01565b5b509050610a2a9190610a2e565b5090565b610a5091905b80821115610a4c576000816000905550600101610a34565b5090565b9056fea265627a7a7231582060e440e950e4955825f54327e8514fd4de3607086adb1d29c9536e6e9aa352ca64736f6c63430005100032",
  "source": "pragma solidity ^0.5.16;\n\nimport \"./ownable.sol\";\nimport \"./safemath.sol\";\n\ncontract ZombieFactory is Ownable {\n    using SafeMath for uint256;\n    using SafeMath32 for uint32;\n    using SafeMath16 for uint16;\n\n    event NewZombie(uint256 zombieId, string name, uint256 dna);\n\n    uint256 dnaDigits = 16;\n    uint256 dnaModulus = 10**dnaDigits;\n    uint256 cooldownTime = 1 days;\n\n    struct Zombie {\n        string name;\n        uint256 dna;\n        uint32 level;\n        uint32 readyTime;\n        uint16 winCount;\n        uint16 lossCount;\n    }\n\n    Zombie[] public zombies;\n\n    mapping(uint256 => address) public zombieToOwner;\n    mapping(address => uint256) ownerZombieCount;\n\n    function _createZombie(string memory _name, uint256 _dna) internal {\n        uint256 id = zombies.push(\n            Zombie(_name, _dna, 1, uint32(now + cooldownTime), 0, 0)\n        ) - 1;\n        zombieToOwner[id] = msg.sender;\n        ownerZombieCount[msg.sender] = ownerZombieCount[msg.sender].add(1);\n        emit NewZombie(id, _name, _dna);\n    }\n\n    function _generateRandomDna(string memory _str)\n        private\n        view\n        returns (uint256)\n    {\n        uint256 rand = uint256(keccak256(abi.encodePacked(_str)));\n        return rand % dnaModulus;\n    }\n\n    function createRandomZombie(string memory _name) public {\n        require(ownerZombieCount[msg.sender] == 0);\n        uint256 randDna = _generateRandomDna(_name);\n        _createZombie(_name, randDna);\n    }\n}\n",
  "sourcePath": "/home/cryptozombie/myCryptoZombie/contracts/zombiefactory.sol",
  "compiler": {
    "name": "solc",
    "version": "0.5.16+commit.9c3226ce.Emscripten.clang"
  },
  "schemaVersion": "3.4.2",
  "updatedAt": "2021-08-13T17:30:22.325Z",
  "devdoc": {
    "methods": {
      "transferOwnership(address)": {
        "details": "Allows the current owner to transfer control of the contract to a newOwner.",
        "params": {
          "newOwner": "The address to transfer ownership to."
        }
      }
    }
  },
  "userdoc": {
    "methods": {}
  }
}