{
  "contractName": "ZombieHelper",
  "abi": [
    {
      "anonymous": false,
      "inputs": [
        {
          "indexed": false,
          "internalType": "uint256",
          "name": "zombieId",
          "type": "uint256"
        },
        {
          "indexed": false,
          "internalType": "string",
          "name": "name",
          "type": "string"
        },
        {
          "indexed": false,
          "internalType": "uint256",
          "name": "dna",
          "type": "uint256"
        }
      ],
      "name": "NewZombie",
      "type": "event"
    },
    {
      "anonymous": false,
      "inputs": [
        {
          "indexed": true,
          "internalType": "address payable",
          "name": "previousOwner",
          "type": "address"
        },
        {
          "indexed": true,
          "internalType": "address payable",
          "name": "newOwner",
          "type": "address"
        }
      ],
      "name": "OwnershipTransferred",
      "type": "event"
    },
    {
      "constant": false,
      "inputs": [
        {
          "internalType": "string",
          "name": "_name",
          "type": "string"
        }
      ],
      "name": "createRandomZombie",
      "outputs": [],
      "payable": false,
      "stateMutability": "nonpayable",
      "type": "function"
    },
    {
      "constant": false,
      "inputs": [
        {
          "internalType": "uint256",
          "name": "_zombieId",
          "type": "uint256"
        },
        {
          "internalType": "uint256",
          "name": "_kittyId",
          "type": "uint256"
        }
      ],
      "name": "feedOnKitty",
      "outputs": [],
      "payable": false,
      "stateMutability": "nonpayable",
      "type": "function"
    },
    {
      "constant": true,
      "inputs": [],
      "name": "owner",
      "outputs": [
        {
          "internalType": "address payable",
          "name": "",
          "type": "address"
        }
      ],
      "payable": false,
      "stateMutability": "view",
      "type": "function"
    },
    {
      "constant": false,
      "inputs": [
        {
          "internalType": "address",
          "name": "_address",
          "type": "address"
        }
      ],
      "name": "setKittyContractAddress",
      "outputs": [],
      "payable": false,
      "stateMutability": "nonpayable",
      "type": "function"
    },
    {
      "constant": false,
      "inputs": [
        {
          "internalType": "address payable",
          "name": "newOwner",
          "type": "address"
        }
      ],
      "name": "transferOwnership",
      "outputs": [],
      "payable": false,
      "stateMutability": "nonpayable",
      "type": "function"
    },
    {
      "constant": true,
      "inputs": [
        {
          "internalType": "uint256",
          "name": "",
          "type": "uint256"
        }
      ],
      "name": "zombieToOwner",
      "outputs": [
        {
          "internalType": "address",
          "name": "",
          "type": "address"
        }
      ],
      "payable": false,
      "stateMutability": "view",
      "type": "function"
    },
    {
      "constant": true,
      "inputs": [
        {
          "internalType": "uint256",
          "name": "",
          "type": "uint256"
        }
      ],
      "name": "zombies",
      "outputs": [
        {
          "internalType": "string",
          "name": "name",
          "type": "string"
        },
        {
          "internalType": "uint256",
          "name": "dna",
          "type": "uint256"
        },
        {
          "internalType": "uint32",
          "name": "level",
          "type": "uint32"
        },
        {
          "internalType": "uint32",
          "name": "readyTime",
          "type": "uint32"
        },
        {
          "internalType": "uint16",
          "name": "winCount",
          "type": "uint16"
        },
        {
          "internalType": "uint16",
          "name": "lossCount",
          "type": "uint16"
        }
      ],
      "payable": false,
      "stateMutability": "view",
      "type": "function"
    },
    {
      "constant": false,
      "inputs": [],
      "name": "withdraw",
      "outputs": [],
      "payable": false,
      "stateMutability": "nonpayable",
      "type": "function"
    },
    {
      "constant": false,
      "inputs": [
        {
          "internalType": "uint256",
          "name": "_fee",
          "type": "uint256"
        }
      ],
      "name": "setLevelUpFee",
      "outputs": [],
      "payable": false,
      "stateMutability": "nonpayable",
      "type": "function"
    },
    {
      "constant": false,
      "inputs": [
        {
          "internalType": "uint256",
          "name": "_zombieId",
          "type": "uint256"
        }
      ],
      "name": "levelUp",
      "outputs": [],
      "payable": true,
      "stateMutability": "payable",
      "type": "function"
    },
    {
      "constant": false,
      "inputs": [
        {
          "internalType": "uint256",
          "name": "_zombieId",
          "type": "uint256"
        },
        {
          "internalType": "string",
          "name": "_newName",
          "type": "string"
        }
      ],
      "name": "changeName",
      "outputs": [],
      "payable": false,
      "stateMutability": "nonpayable",
      "type": "function"
    },
    {
      "constant": false,
      "inputs": [
        {
          "internalType": "uint256",
          "name": "_zombieId",
          "type": "uint256"
        },
        {
          "internalType": "uint256",
          "name": "_newDna",
          "type": "uint256"
        }
      ],
      "name": "changeDna",
      "outputs": [],
      "payable": false,
      "stateMutability": "nonpayable",
      "type": "function"
    },
    {
      "constant": true,
      "inputs": [
        {
          "internalType": "address",
          "name": "_owner",
          "type": "address"
        }
      ],
      "name": "getZombiesByOwner",
      "outputs": [
        {
          "internalType": "uint256[]",
          "name": "",
          "type": "uint256[]"
        }
      ],
      "payable": false,
      "stateMutability": "view",
      "type": "function"
    }
  ],
  "bytecode": "0x60806040526010600155600154600a0a6002556201518060035566038d7ea4c68000600855336000806101000a81548173ffffffffffffffffffffffffffffffffffffffff021916908373ffffffffffffffffffffffffffffffffffffffff16021790555061175f806100736000396000f3fe6080604052600436106100c25760003560e01c80635f4623f11161007f5780638da5cb5b116100595780638da5cb5b146104cf578063c39cbef114610526578063ccf670f8146105b6578063f2fde38b146105f1576100c2565b80635f4623f1146103715780635faf2880146103c25780637bff0a0114610407576100c2565b80630ce90ec2146100c757806317a7f4cc146100f55780632052465e1461013a5780633ccfd60b146102395780634412e10414610250578063528b7b8f146102f6575b600080fd5b6100f3600480360360208110156100dd57600080fd5b8101908080359060200190929190505050610642565b005b34801561010157600080fd5b506101386004803603604081101561011857600080fd5b8101908080359060200190929190803590602001909291905050506106d7565b005b34801561014657600080fd5b506101736004803603602081101561015d57600080fd5b8101908080359060200190929190505050610862565b60405180806020018781526020018663ffffffff1663ffffffff1681526020018563ffffffff1663ffffffff1681526020018461ffff1661ffff1681526020018361ffff1661ffff168152602001828103825288818151815260200191508051906020019080838360005b838110156101f95780820151818401526020810190506101de565b50505050905090810190601f1680156102265780820380516001836020036101000a031916815260200191505b5097505050505050505060405180910390f35b34801561024557600080fd5b5061024e61097f565b005b34801561025c57600080fd5b5061029f6004803603602081101561027357600080fd5b81019080803573ffffffffffffffffffffffffffffffffffffffff169060200190929190505050610a42565b6040518080602001828103825283818151815260200191508051906020019060200280838360005b838110156102e25780820151818401526020810190506102c7565b505050509050019250505060405180910390f35b34801561030257600080fd5b5061032f6004803603602081101561031957600080fd5b8101908080359060200190929190505050610b6f565b604051808273ffffffffffffffffffffffffffffffffffffffff1673ffffffffffffffffffffffffffffffffffffffff16815260200191505060405180910390f35b34801561037d57600080fd5b506103c06004803603602081101561039457600080fd5b81019080803573ffffffffffffffffffffffffffffffffffffffff169060200190929190505050610ba2565b005b3480156103ce57600080fd5b50610405600480360360408110156103e557600080fd5b810190808035906020019092919080359060200190929190505050610c3f565b005b34801561041357600080fd5b506104cd6004803603602081101561042a57600080fd5b810190808035906020019064010000000081111561044757600080fd5b82018360208201111561045957600080fd5b8035906020019184600183028401116401000000008311171561047b57600080fd5b91908080601f016020809104026020016040519081016040528093929190818152602001838380828437600081840152601f19601f820116905080830192505050505050509192919290505050610d19565b005b3480156104db57600080fd5b506104e4610d80565b604051808273ffffffffffffffffffffffffffffffffffffffff1673ffffffffffffffffffffffffffffffffffffffff16815260200191505060405180910390f35b34801561053257600080fd5b506105b46004803603604081101561054957600080fd5b81019080803590602001909291908035906020019064010000000081111561057057600080fd5b82018360208201111561058257600080fd5b803590602001918460018302840111640100000000831117156105a457600080fd5b9091929391929390505050610da5565b005b3480156105c257600080fd5b506105ef600480360360208110156105d957600080fd5b8101908080359060200190929190505050610e8b565b005b3480156105fd57600080fd5b506106406004803603602081101561061457600080fd5b81019080803573ffffffffffffffffffffffffffffffffffffffff169060200190929190505050610eee565b005b600854341461065057600080fd5b61069860016004838154811061066257fe5b906000526020600020906003020160020160009054906101000a900463ffffffff1663ffffffff1661103f90919063ffffffff16565b600482815481106106a557fe5b906000526020600020906003020160020160006101000a81548163ffffffff021916908363ffffffff16021790555050565b6000600760009054906101000a900473ffffffffffffffffffffffffffffffffffffffff1673ffffffffffffffffffffffffffffffffffffffff1663e98b7f4d836040518263ffffffff1660e01b8152600401808281526020019150506101406040518083038186803b15801561074d57600080fd5b505afa158015610761573d6000803e3d6000fd5b505050506040513d61014081101561077857600080fd5b81019080805190602001909291908051906020019092919080519060200190929190805190602001909291908051906020019092919080519060200190929190805190602001909291908051906020019092919080519060200190929190805190602001909291905050509091929394959697985090919293949596975090919293949596509091929394955090919293945090919293509091925090915090508091505061085d83826040518060400160405280600581526020017f6b69747479000000000000000000000000000000000000000000000000000000815250611067565b505050565b6004818154811061086f57fe5b9060005260206000209060030201600091509050806000018054600181600116156101000203166002900480601f01602080910402602001604051908101604052809291908181526020018280546001816001161561010002031660029004801561091b5780601f106108f05761010080835404028352916020019161091b565b820191906000526020600020905b8154815290600101906020018083116108fe57829003601f168201915b5050505050908060010154908060020160009054906101000a900463ffffffff16908060020160049054906101000a900463ffffffff16908060020160089054906101000a900461ffff169080600201600a9054906101000a900461ffff16905086565b6000809054906101000a900473ffffffffffffffffffffffffffffffffffffffff1673ffffffffffffffffffffffffffffffffffffffff163373ffffffffffffffffffffffffffffffffffffffff16146109d857600080fd5b6000809054906101000a900473ffffffffffffffffffffffffffffffffffffffff1673ffffffffffffffffffffffffffffffffffffffff166108fc479081150290604051600060405180830381858888f19350505050158015610a3f573d6000803e3d6000fd5b50565b606080600660008473ffffffffffffffffffffffffffffffffffffffff1673ffffffffffffffffffffffffffffffffffffffff16815260200190815260200160002054604051908082528060200260200182016040528015610ab35781602001602082028038833980820191505090505b509050600080905060008090505b600480549050811015610b64578473ffffffffffffffffffffffffffffffffffffffff166005600083815260200190815260200160002060009054906101000a900473ffffffffffffffffffffffffffffffffffffffff1673ffffffffffffffffffffffffffffffffffffffff161415610b575780838381518110610b4257fe5b60200260200101818152505081806001019250505b8080600101915050610ac1565b508192505050919050565b60056020528060005260406000206000915054906101000a900473ffffffffffffffffffffffffffffffffffffffff1681565b6000809054906101000a900473ffffffffffffffffffffffffffffffffffffffff1673ffffffffffffffffffffffffffffffffffffffff163373ffffffffffffffffffffffffffffffffffffffff1614610bfb57600080fd5b80600760006101000a81548173ffffffffffffffffffffffffffffffffffffffff021916908373ffffffffffffffffffffffffffffffffffffffff16021790555050565b6014828160048281548110610c5057fe5b906000526020600020906003020160020160009054906101000a900463ffffffff1663ffffffff161015610c8357600080fd5b836005600082815260200190815260200160002060009054906101000a900473ffffffffffffffffffffffffffffffffffffffff1673ffffffffffffffffffffffffffffffffffffffff163373ffffffffffffffffffffffffffffffffffffffff1614610cef57600080fd5b8360048681548110610cfd57fe5b9060005260206000209060030201600101819055505050505050565b6000600660003373ffffffffffffffffffffffffffffffffffffffff1673ffffffffffffffffffffffffffffffffffffffff1681526020019081526020016000205414610d6557600080fd5b6000610d7082611238565b9050610d7c82826112c6565b5050565b6000809054906101000a900473ffffffffffffffffffffffffffffffffffffffff1681565b6002838160048281548110610db657fe5b906000526020600020906003020160020160009054906101000a900463ffffffff1663ffffffff161015610de957600080fd5b846005600082815260200190815260200160002060009054906101000a900473ffffffffffffffffffffffffffffffffffffffff1673ffffffffffffffffffffffffffffffffffffffff163373ffffffffffffffffffffffffffffffffffffffff1614610e5557600080fd5b848460048881548110610e6457fe5b90600052602060002090600302016000019190610e82929190611605565b50505050505050565b6000809054906101000a900473ffffffffffffffffffffffffffffffffffffffff1673ffffffffffffffffffffffffffffffffffffffff163373ffffffffffffffffffffffffffffffffffffffff1614610ee457600080fd5b8060088190555050565b6000809054906101000a900473ffffffffffffffffffffffffffffffffffffffff1673ffffffffffffffffffffffffffffffffffffffff163373ffffffffffffffffffffffffffffffffffffffff1614610f4757600080fd5b600073ffffffffffffffffffffffffffffffffffffffff168173ffffffffffffffffffffffffffffffffffffffff161415610f8157600080fd5b8073ffffffffffffffffffffffffffffffffffffffff166000809054906101000a900473ffffffffffffffffffffffffffffffffffffffff1673ffffffffffffffffffffffffffffffffffffffff167f8be0079c531659141344cd1fd0a4f28419497f9722a3daafe3b4186f6b6457e060405160405180910390a3806000806101000a81548173ffffffffffffffffffffffffffffffffffffffff021916908373ffffffffffffffffffffffffffffffffffffffff16021790555050565b60008082840190508363ffffffff168163ffffffff16101561105d57fe5b8091505092915050565b826005600082815260200190815260200160002060009054906101000a900473ffffffffffffffffffffffffffffffffffffffff1673ffffffffffffffffffffffffffffffffffffffff163373ffffffffffffffffffffffffffffffffffffffff16146110d357600080fd5b6000600485815481106110e257fe5b906000526020600020906003020190506110fb81611598565b61110457600080fd5b600254848161110f57fe5b06935060006002858360010154018161112457fe5b04905060405180807f6b6974747900000000000000000000000000000000000000000000000000000081525060050190506040518091039020846040516020018082805190602001908083835b602083106111945780518252602082019150602081019050602083039250611171565b6001836020036101000a0380198251168184511680821785525050505050509050019150506040516020818303038152906040528051906020012014156111e8576063606482816111e157fe5b0682030190505b6112276040518060400160405280600681526020017f4e6f4e616d650000000000000000000000000000000000000000000000000000815250826112c6565b611230826115bf565b505050505050565b600080826040516020018082805190602001908083835b60208310611272578051825260208201915060208101905060208303925061124f565b6001836020036101000a0380198251168184511680821785525050505050509050019150506040516020818303038152906040528051906020012060001c905060025481816112bd57fe5b06915050919050565b6000600160046040518060c00160405280868152602001858152602001600163ffffffff168152602001600354420163ffffffff168152602001600061ffff168152602001600061ffff1681525090806001815401808255809150509060018203906000526020600020906003020160009091929091909150600082015181600001908051906020019061135b929190611685565b506020820151816001015560408201518160020160006101000a81548163ffffffff021916908363ffffffff16021790555060608201518160020160046101000a81548163ffffffff021916908363ffffffff16021790555060808201518160020160086101000a81548161ffff021916908361ffff16021790555060a082015181600201600a6101000a81548161ffff021916908361ffff1602179055505050039050336005600083815260200190815260200160002060006101000a81548173ffffffffffffffffffffffffffffffffffffffff021916908373ffffffffffffffffffffffffffffffffffffffff1602179055506114a46001600660003373ffffffffffffffffffffffffffffffffffffffff1673ffffffffffffffffffffffffffffffffffffffff168152602001908152602001600020546115e990919063ffffffff16565b600660003373ffffffffffffffffffffffffffffffffffffffff1673ffffffffffffffffffffffffffffffffffffffff168152602001908152602001600020819055507f88f026aacbbecc90c18411df4b1185fd8d9be2470f1962f192bf84a27d0704b78184846040518084815260200180602001838152602001828103825284818151815260200191508051906020019080838360005b8381101561155757808201518184015260208101905061153c565b50505050905090810190601f1680156115845780820380516001836020036101000a031916815260200191505b5094505050505060405180910390a1505050565b6000428260020160049054906101000a900463ffffffff1663ffffffff1611159050919050565b60035442018160020160046101000a81548163ffffffff021916908363ffffffff16021790555050565b6000808284019050838110156115fb57fe5b8091505092915050565b828054600181600116156101000203166002900490600052602060002090601f016020900481019282601f1061164657803560ff1916838001178555611674565b82800160010185558215611674579182015b82811115611673578235825591602001919060010190611658565b5b5090506116819190611705565b5090565b828054600181600116156101000203166002900490600052602060002090601f016020900481019282601f106116c657805160ff19168380011785556116f4565b828001600101855582156116f4579182015b828111156116f35782518255916020019190600101906116d8565b5b5090506117019190611705565b5090565b61172791905b8082111561172357600081600090555060010161170b565b5090565b9056fea265627a7a7231582056e748a04b0b5f8f0d0f1fbd62c601730b74673706e050554edfd485b85ba16664736f6c63430005100032",
  "source": "pragma solidity ^0.5.16;\n\nimport \"./zombiefeeding.sol\";\n\ncontract ZombieHelper is ZombieFeeding {\n    uint256 levelUpFee = 0.001 ether;\n\n    modifier aboveLevel(uint256 _level, uint256 _zombieId) {\n        require(zombies[_zombieId].level >= _level);\n        _;\n    }\n\n    function withdraw() external onlyOwner {\n        owner.transfer(address(this).balance);\n    }\n\n    function setLevelUpFee(uint256 _fee) external onlyOwner {\n        levelUpFee = _fee;\n    }\n\n    function levelUp(uint256 _zombieId) external payable {\n        require(msg.value == levelUpFee);\n        zombies[_zombieId].level = zombies[_zombieId].level.add(1);\n    }\n\n    function changeName(uint256 _zombieId, string calldata _newName)\n        external\n        aboveLevel(2, _zombieId)\n        ownerOfMine(_zombieId)\n    {\n        zombies[_zombieId].name = _newName;\n    }\n\n    function changeDna(uint256 _zombieId, uint256 _newDna)\n        external\n        aboveLevel(20, _zombieId)\n        ownerOfMine(_zombieId)\n    {\n        zombies[_zombieId].dna = _newDna;\n    }\n\n    function getZombiesByOwner(address _owner)\n        external\n        view\n        returns (uint256[] memory)\n    {\n        uint256[] memory result = new uint256[](ownerZombieCount[_owner]);\n\n        uint256 counter = 0;\n        for (uint256 i = 0; i < zombies.length; i++) {\n            if (zombieToOwner[i] == _owner) {\n                result[counter] = i;\n                counter++;\n            }\n        }\n\n        return result;\n    }\n}\n",
  "sourcePath": "/home/cryptozombie/myCryptoZombie/contracts/zombiehelper.sol",
  "compiler": {
    "name": "solc",
    "version": "0.5.16+commit.9c3226ce.Emscripten.clang"
  },
  "schemaVersion": "3.4.2",
  "updatedAt": "2021-08-13T17:36:05.496Z",
  "devdoc": {
    "methods": {
      "transferOwnership(address)": {
        "details": "Allows the current owner to transfer control of the contract to a newOwner.",
        "params": {
          "newOwner": "The address to transfer ownership to."
        }
      }
    }
  },
  "userdoc": {
    "methods": {}
  }
}